{
  "contractName": "Consortium",
  "abi": [
    {
      "inputs": [],
      "payable": false,
      "stateMutability": "nonpayable",
      "type": "constructor"
    },
    {
      "constant": true,
      "inputs": [],
      "name": "main",
      "outputs": [
        {
          "name": "",
          "type": "address"
        }
      ],
      "payable": false,
      "stateMutability": "view",
      "type": "function"
    },
    {
      "constant": true,
      "inputs": [],
      "name": "auxiliaries",
      "outputs": [
        {
          "name": "",
          "type": "address[]"
        }
      ],
      "payable": false,
      "stateMutability": "view",
      "type": "function"
    },
    {
      "constant": true,
      "inputs": [],
      "name": "latestRound",
      "outputs": [
        {
          "name": "round",
          "type": "uint256"
        }
      ],
      "payable": false,
      "stateMutability": "view",
      "type": "function"
    },
    {
      "constant": true,
      "inputs": [
        {
          "name": "_address",
          "type": "address"
        },
        {
          "name": "_round",
          "type": "uint256"
        }
      ],
      "name": "countTokens",
      "outputs": [
        {
          "name": "count",
          "type": "uint256"
        }
      ],
      "payable": false,
      "stateMutability": "view",
      "type": "function"
    },
    {
      "constant": true,
      "inputs": [
        {
          "name": "_round",
          "type": "uint256"
        }
      ],
      "name": "countTotalTokens",
      "outputs": [
        {
          "name": "count",
          "type": "uint256"
        }
      ],
      "payable": false,
      "stateMutability": "view",
      "type": "function"
    },
    {
      "constant": false,
      "inputs": [
        {
          "name": "_cid",
          "type": "bytes32"
        },
        {
          "name": "_roundDuration",
          "type": "uint256"
        },
        {
          "name": "_numTrainers",
          "type": "uint256"
        }
      ],
      "name": "setGenesis",
      "outputs": [],
      "payable": false,
      "stateMutability": "nonpayable",
      "type": "function"
    },
    {
      "constant": false,
      "inputs": [
        {
          "name": "_evaluator",
          "type": "address"
        }
      ],
      "name": "addAux",
      "outputs": [],
      "payable": false,
      "stateMutability": "nonpayable",
      "type": "function"
    }
  ],
  "bytecode": "0x608060405234801561001057600080fd5b50600061001b610080565b604051809103906000f080158015610037573d6000803e3d6000fd5b509050806000806101000a81548173ffffffffffffffffffffffffffffffffffffffff021916908373ffffffffffffffffffffffffffffffffffffffff16021790555050610090565b60405161119780611d6c83390190565b611ccd8061009f6000396000f3fe60806040526004361061007d576000357c01000000000000000000000000000000000000000000000000000000009004806311bb27ff14610082578063166362f2146100d1578063189d7dca146101225780634c35f0d014610191578063668a0f02146101fd578063dffeadd014610228578063ebe328f81461027f575b600080fd5b34801561008e57600080fd5b506100cf600480360360608110156100a557600080fd5b810190808035906020019092919080359060200190929190803590602001909291905050506102ce565b005b3480156100dd57600080fd5b50610120600480360360208110156100f457600080fd5b81019080803573ffffffffffffffffffffffffffffffffffffffff1690602001909291905050506103ac565b005b34801561012e57600080fd5b5061017b6004803603604081101561014557600080fd5b81019080803573ffffffffffffffffffffffffffffffffffffffff16906020019092919080359060200190929190505050610610565b6040518082815260200191505060405180910390f35b34801561019d57600080fd5b506101a6610758565b6040518080602001828103825283818151815260200191508051906020019060200280838360005b838110156101e95780820151818401526020810190506101ce565b505050509050019250505060405180910390f35b34801561020957600080fd5b506102126107e6565b6040518082815260200191505060405180910390f35b34801561023457600080fd5b5061023d6109be565b604051808273ffffffffffffffffffffffffffffffffffffffff1673ffffffffffffffffffffffffffffffffffffffff16815260200191505060405180910390f35b34801561028b57600080fd5b506102b8600480360360208110156102a257600080fd5b81019080803590602001909291905050506109e7565b6040518082815260200191505060405180910390f35b82600281905550816003819055508060048190555060008060009054906101000a900473ffffffffffffffffffffffffffffffffffffffff1690508073ffffffffffffffffffffffffffffffffffffffff166311bb27ff6002546003546004546040518463ffffffff167c0100000000000000000000000000000000000000000000000000000000028152600401808481526020018381526020018281526020019350505050600060405180830381600087803b15801561038e57600080fd5b505af11580156103a2573d6000803e3d6000fd5b5050505050505050565b60006001026002541415151561042a576040517f08c379a000000000000000000000000000000000000000000000000000000000815260040180806020018281038252600f8152602001807f47656e65736973206e6f7420736574000000000000000000000000000000000081525060200191505060405180910390fd5b6000610434610afa565b604051809103906000f080158015610450573d6000803e3d6000fd5b5090508073ffffffffffffffffffffffffffffffffffffffff166311bb27ff6002546003546001600454036040518463ffffffff167c0100000000000000000000000000000000000000000000000000000000028152600401808481526020018381526020018281526020019350505050600060405180830381600087803b1580156104db57600080fd5b505af11580156104ef573d6000803e3d6000fd5b505050508073ffffffffffffffffffffffffffffffffffffffff166302dbbbac836040518263ffffffff167c0100000000000000000000000000000000000000000000000000000000028152600401808273ffffffffffffffffffffffffffffffffffffffff1673ffffffffffffffffffffffffffffffffffffffff168152602001915050600060405180830381600087803b15801561058e57600080fd5b505af11580156105a2573d6000803e3d6000fd5b5050505060018190806001815401808255809150509060018203906000526020600020016000909192909190916101000a81548173ffffffffffffffffffffffffffffffffffffffff021916908373ffffffffffffffffffffffffffffffffffffffff160217905550505050565b600080600090505b60018054905081101561075157600060018281548110151561063657fe5b9060005260206000200160009054906101000a900473ffffffffffffffffffffffffffffffffffffffff1690508073ffffffffffffffffffffffffffffffffffffffff1663189d7dca86866040518363ffffffff167c0100000000000000000000000000000000000000000000000000000000028152600401808373ffffffffffffffffffffffffffffffffffffffff1673ffffffffffffffffffffffffffffffffffffffff1681526020018281526020019250505060206040518083038186803b15801561070457600080fd5b505afa158015610718573d6000803e3d6000fd5b505050506040513d602081101561072e57600080fd5b810190808051906020019092919050505083019250508080600101915050610618565b5092915050565b606060018054806020026020016040519081016040528092919081815260200182805480156107dc57602002820191906000526020600020905b8160009054906101000a900473ffffffffffffffffffffffffffffffffffffffff1673ffffffffffffffffffffffffffffffffffffffff1681526020019060010190808311610792575b5050505050905090565b6000806000809054906101000a900473ffffffffffffffffffffffffffffffffffffffff1690508073ffffffffffffffffffffffffffffffffffffffff16638a19c8bc6040518163ffffffff167c010000000000000000000000000000000000000000000000000000000002815260040160206040518083038186803b15801561086f57600080fd5b505afa158015610883573d6000803e3d6000fd5b505050506040513d602081101561089957600080fd5b8101908080519060200190929190505050915060008090505b6001805490508110156109b95760006001828154811015156108d057fe5b9060005260206000200160009054906101000a900473ffffffffffffffffffffffffffffffffffffffff16905060008173ffffffffffffffffffffffffffffffffffffffff16638a19c8bc6040518163ffffffff167c010000000000000000000000000000000000000000000000000000000002815260040160206040518083038186803b15801561096157600080fd5b505afa158015610975573d6000803e3d6000fd5b505050506040513d602081101561098b57600080fd5b81019080805190602001909291905050509050808510156109aa578094505b505080806001019150506108b2565b505090565b60008060009054906101000a900473ffffffffffffffffffffffffffffffffffffffff16905090565b600080600090505b600180549050811015610af4576000600182815481101515610a0d57fe5b9060005260206000200160009054906101000a900473ffffffffffffffffffffffffffffffffffffffff1690508073ffffffffffffffffffffffffffffffffffffffff1663ebe328f8856040518263ffffffff167c01000000000000000000000000000000000000000000000000000000000281526004018082815260200191505060206040518083038186803b158015610aa757600080fd5b505afa158015610abb573d6000803e3d6000fd5b505050506040513d6020811015610ad157600080fd5b8101908080519060200190929190505050830192505080806001019150506109ef565b50919050565b60405161119780610b0b8339019056fe608060405234801561001057600080fd5b50336000806101000a81548173ffffffffffffffffffffffffffffffffffffffff021916908373ffffffffffffffffffffffffffffffffffffffff160217905550611137806100606000396000f3fe6080604052600436106100b4576000357c01000000000000000000000000000000000000000000000000000000009004806302dbbbac146100b957806311bb27ff1461010a578063189d7dca1461015957806332fd011d146101c857806352c42d5c1461020d5780636f851862146102805780638a19c8bc146102c5578063940ebef7146102f05780639cb93dd11461031b578063a7f0b3de14610372578063b4c2f7271461039d578063ebe328f81461042d575b600080fd5b3480156100c557600080fd5b50610108600480360360208110156100dc57600080fd5b81019080803573ffffffffffffffffffffffffffffffffffffffff16906020019092919050505061047c565b005b34801561011657600080fd5b506101576004803603606081101561012d57600080fd5b81019080803590602001909291908035906020019092919080359060200190929190505050610583565b005b34801561016557600080fd5b506101b26004803603604081101561017c57600080fd5b81019080803573ffffffffffffffffffffffffffffffffffffffff169060200190929190803590602001909291905050506106e5565b6040518082815260200191505060405180910390f35b3480156101d457600080fd5b5061020b600480360360408110156101eb57600080fd5b810190808035906020019092919080359060200190929190505050610806565b005b34801561021957600080fd5b506102666004803603604081101561023057600080fd5b81019080803573ffffffffffffffffffffffffffffffffffffffff16906020019092919080359060200190929190505050610c83565b604051808215151515815260200191505060405180910390f35b34801561028c57600080fd5b506102c3600480360360408110156102a357600080fd5b810190808035906020019092919080359060200190929190505050610d70565b005b3480156102d157600080fd5b506102da610f12565b6040518082815260200191505060405180910390f35b3480156102fc57600080fd5b50610305610f37565b6040518082815260200191505060405180910390f35b34801561032757600080fd5b50610330610f5d565b604051808273ffffffffffffffffffffffffffffffffffffffff1673ffffffffffffffffffffffffffffffffffffffff16815260200191505060405180910390f35b34801561037e57600080fd5b50610387610f82565b6040518082815260200191505060405180910390f35b3480156103a957600080fd5b506103d6600480360360208110156103c057600080fd5b8101908080359060200190929190505050610f88565b6040518080602001828103825283818151815260200191508051906020019060200280838360005b838110156104195780820151818401526020810190506103fe565b505050509050019250505060405180910390f35b34801561043957600080fd5b506104666004803603602081101561045057600080fd5b8101908080359060200190929190505050610ff3565b6040518082815260200191505060405180910390f35b6000809054906101000a900473ffffffffffffffffffffffffffffffffffffffff1673ffffffffffffffffffffffffffffffffffffffff163373ffffffffffffffffffffffffffffffffffffffff16141515610540576040517f08c379a000000000000000000000000000000000000000000000000000000000815260040180806020018281038252601c8152602001807f4e6f74207468652072656769737465726564206576616c7561746f720000000081525060200191505060405180910390fd5b806000806101000a81548173ffffffffffffffffffffffffffffffffffffffff021916908373ffffffffffffffffffffffffffffffffffffffff16021790555050565b6000809054906101000a900473ffffffffffffffffffffffffffffffffffffffff1673ffffffffffffffffffffffffffffffffffffffff163373ffffffffffffffffffffffffffffffffffffffff16141515610647576040517f08c379a000000000000000000000000000000000000000000000000000000000815260040180806020018281038252601c8152602001807f4e6f74207468652072656769737465726564206576616c7561746f720000000081525060200191505060405180910390fd5b60006001026001541415156106c4576040517f08c379a000000000000000000000000000000000000000000000000000000000815260040180806020018281038252601c8152602001807f47656e657369732068617320616c7265616479206265656e207365740000000081525060200191505060405180910390fd5b82600181905550426002819055508160038190555080600481905550505050565b60006060600860008573ffffffffffffffffffffffffffffffffffffffff1673ffffffffffffffffffffffffffffffffffffffff16815260200190815260200160002080548060200260200160405190810160405280929190818152602001828054801561077257602002820191906000526020600020905b81548152602001906001019080831161075e575b5050505050905060008090505b81518110156107fe576000828281518110151561079857fe5b9060200190602002015190508460076000838152602001908152602001600020541115156107f057600a600084848151811015156107d257fe5b90602001906020020151815260200190815260200160002054840193505b50808060010191505061077f565b505092915050565b7fdd970dd9b5bfe707922155b058a407655cb18288b807e2216442bca8ad83d6b561082f610f12565b60405180806020018381526020018281038252600b8152602001807f637572526f756e64203a200000000000000000000000000000000000000000008152506020019250505060405180910390a17fdd970dd9b5bfe707922155b058a407655cb18288b807e2216442bca8ad83d6b5816040518080602001838152602001828103825260118152602001807f696e73657274656420526f756e64203a200000000000000000000000000000008152506020019250505060405180910390a160008111151561098b576040517f08c379a000000000000000000000000000000000000000000000000000000000815260040180806020018281038252602a8152602001807f43616e6e6f742061646420616e2075706461746520666f72207468652067656e81526020017f6573697320726f756e640000000000000000000000000000000000000000000081525060400191505060405180910390fd5b610993610f12565b8110151515610a30576040517f08c379a00000000000000000000000000000000000000000000000000000000081526004018080602001828103825260258152602001807f43616e6e6f742061646420616e2075706461746520666f72206120706173742081526020017f726f756e6400000000000000000000000000000000000000000000000000000081525060400191505060405180910390fd5b610a38610f12565b8111151515610ad5576040517f08c379a00000000000000000000000000000000000000000000000000000000081526004018080602001828103825260278152602001807f43616e6e6f742061646420616e2075706461746520666f72206120667574757281526020017f6520726f756e640000000000000000000000000000000000000000000000000081525060400191505060405180910390fd5b610adf3382610c83565b151515610b7a576040517f08c379a00000000000000000000000000000000000000000000000000000000081526004018080602001828103825260268152602001807f416c726561647920616464656420616e2075706461746520666f72207468697381526020017f20726f756e64000000000000000000000000000000000000000000000000000081525060400191505060405180910390fd5b60066000828152602001908152602001600020829080600181540180825580915050906001820390600052602060002001600090919290919091505550600860003373ffffffffffffffffffffffffffffffffffffffff1673ffffffffffffffffffffffffffffffffffffffff1681526020019081526020016000208290806001815401808255809150509060018203906000526020600020016000909192909190915055508060076000848152602001908152602001600020819055506000600454118015610c625750600454600660008381526020019081526020016000208054905010155b15610c7f57610c6f610f37565b6005600082825401925050819055505b5050565b600080600090505b600860008573ffffffffffffffffffffffffffffffffffffffff1673ffffffffffffffffffffffffffffffffffffffff16815260200190815260200160002080549050811015610d64576000600860008673ffffffffffffffffffffffffffffffffffffffff1673ffffffffffffffffffffffffffffffffffffffff16815260200190815260200160002082815481101515610d2357fe5b906000526020600020015490508360076000838152602001908152602001600020541415610d5657600192505050610d6a565b508080600101915050610c8b565b50600090505b92915050565b6000809054906101000a900473ffffffffffffffffffffffffffffffffffffffff1673ffffffffffffffffffffffffffffffffffffffff163373ffffffffffffffffffffffffffffffffffffffff16141515610e34576040517f08c379a000000000000000000000000000000000000000000000000000000000815260040180806020018281038252601c8152602001807f4e6f74207468652072656769737465726564206576616c7561746f720000000081525060200191505060405180910390fd5b6009600083815260200190815260200160002060009054906101000a900460ff16151515610eca576040517f08c379a00000000000000000000000000000000000000000000000000000000081526004018080602001828103825260208152602001807f5570646174652068617320616c7265616479206265656e20726577617264656481525060200191505060405180910390fd5b80600a60008481526020019081526020016000208190555060016009600084815260200190815260200160002060006101000a81548160ff0219169083151502179055505050565b600080600254426005540103905060035481811515610f2d57fe5b0460010191505090565b600080600254426005540103905060035481811515610f5257fe5b066003540391505090565b6000809054906101000a900473ffffffffffffffffffffffffffffffffffffffff1681565b60015481565b606060066000838152602001908152602001600020805480602002602001604051908101604052809291908181526020018280548015610fe757602002820191906000526020600020905b815481526020019060010190808311610fd3575b50505050509050919050565b600080600190505b611003610f12565b811115156111055760606006600083815260200190815260200160002080548060200260200160405190810160405280929190818152602001828054801561106a57602002820191906000526020600020905b815481526020019060010190808311611056575b5050505050905060008090505b81518110156110f6576000828281518110151561109057fe5b9060200190602002015190508560076000838152602001908152602001600020541115156110e857600a600084848151811015156110ca57fe5b90602001906020020151815260200190815260200160002054850194505b508080600101915050611077565b50508080600101915050610ffb565b5091905056fea165627a7a72305820f8372b193a54fdc91963f73fc9888e4e6dcc618949dd43c26a1b719141cb600a0029a165627a7a723058201c0782efe658baab1b572b286860269ea933d74ce29c1fb593480815f4b9d6b80029608060405234801561001057600080fd5b50336000806101000a81548173ffffffffffffffffffffffffffffffffffffffff021916908373ffffffffffffffffffffffffffffffffffffffff160217905550611137806100606000396000f3fe6080604052600436106100b4576000357c01000000000000000000000000000000000000000000000000000000009004806302dbbbac146100b957806311bb27ff1461010a578063189d7dca1461015957806332fd011d146101c857806352c42d5c1461020d5780636f851862146102805780638a19c8bc146102c5578063940ebef7146102f05780639cb93dd11461031b578063a7f0b3de14610372578063b4c2f7271461039d578063ebe328f81461042d575b600080fd5b3480156100c557600080fd5b50610108600480360360208110156100dc57600080fd5b81019080803573ffffffffffffffffffffffffffffffffffffffff16906020019092919050505061047c565b005b34801561011657600080fd5b506101576004803603606081101561012d57600080fd5b81019080803590602001909291908035906020019092919080359060200190929190505050610583565b005b34801561016557600080fd5b506101b26004803603604081101561017c57600080fd5b81019080803573ffffffffffffffffffffffffffffffffffffffff169060200190929190803590602001909291905050506106e5565b6040518082815260200191505060405180910390f35b3480156101d457600080fd5b5061020b600480360360408110156101eb57600080fd5b810190808035906020019092919080359060200190929190505050610806565b005b34801561021957600080fd5b506102666004803603604081101561023057600080fd5b81019080803573ffffffffffffffffffffffffffffffffffffffff16906020019092919080359060200190929190505050610c83565b604051808215151515815260200191505060405180910390f35b34801561028c57600080fd5b506102c3600480360360408110156102a357600080fd5b810190808035906020019092919080359060200190929190505050610d70565b005b3480156102d157600080fd5b506102da610f12565b6040518082815260200191505060405180910390f35b3480156102fc57600080fd5b50610305610f37565b6040518082815260200191505060405180910390f35b34801561032757600080fd5b50610330610f5d565b604051808273ffffffffffffffffffffffffffffffffffffffff1673ffffffffffffffffffffffffffffffffffffffff16815260200191505060405180910390f35b34801561037e57600080fd5b50610387610f82565b6040518082815260200191505060405180910390f35b3480156103a957600080fd5b506103d6600480360360208110156103c057600080fd5b8101908080359060200190929190505050610f88565b6040518080602001828103825283818151815260200191508051906020019060200280838360005b838110156104195780820151818401526020810190506103fe565b505050509050019250505060405180910390f35b34801561043957600080fd5b506104666004803603602081101561045057600080fd5b8101908080359060200190929190505050610ff3565b6040518082815260200191505060405180910390f35b6000809054906101000a900473ffffffffffffffffffffffffffffffffffffffff1673ffffffffffffffffffffffffffffffffffffffff163373ffffffffffffffffffffffffffffffffffffffff16141515610540576040517f08c379a000000000000000000000000000000000000000000000000000000000815260040180806020018281038252601c8152602001807f4e6f74207468652072656769737465726564206576616c7561746f720000000081525060200191505060405180910390fd5b806000806101000a81548173ffffffffffffffffffffffffffffffffffffffff021916908373ffffffffffffffffffffffffffffffffffffffff16021790555050565b6000809054906101000a900473ffffffffffffffffffffffffffffffffffffffff1673ffffffffffffffffffffffffffffffffffffffff163373ffffffffffffffffffffffffffffffffffffffff16141515610647576040517f08c379a000000000000000000000000000000000000000000000000000000000815260040180806020018281038252601c8152602001807f4e6f74207468652072656769737465726564206576616c7561746f720000000081525060200191505060405180910390fd5b60006001026001541415156106c4576040517f08c379a000000000000000000000000000000000000000000000000000000000815260040180806020018281038252601c8152602001807f47656e657369732068617320616c7265616479206265656e207365740000000081525060200191505060405180910390fd5b82600181905550426002819055508160038190555080600481905550505050565b60006060600860008573ffffffffffffffffffffffffffffffffffffffff1673ffffffffffffffffffffffffffffffffffffffff16815260200190815260200160002080548060200260200160405190810160405280929190818152602001828054801561077257602002820191906000526020600020905b81548152602001906001019080831161075e575b5050505050905060008090505b81518110156107fe576000828281518110151561079857fe5b9060200190602002015190508460076000838152602001908152602001600020541115156107f057600a600084848151811015156107d257fe5b90602001906020020151815260200190815260200160002054840193505b50808060010191505061077f565b505092915050565b7fdd970dd9b5bfe707922155b058a407655cb18288b807e2216442bca8ad83d6b561082f610f12565b60405180806020018381526020018281038252600b8152602001807f637572526f756e64203a200000000000000000000000000000000000000000008152506020019250505060405180910390a17fdd970dd9b5bfe707922155b058a407655cb18288b807e2216442bca8ad83d6b5816040518080602001838152602001828103825260118152602001807f696e73657274656420526f756e64203a200000000000000000000000000000008152506020019250505060405180910390a160008111151561098b576040517f08c379a000000000000000000000000000000000000000000000000000000000815260040180806020018281038252602a8152602001807f43616e6e6f742061646420616e2075706461746520666f72207468652067656e81526020017f6573697320726f756e640000000000000000000000000000000000000000000081525060400191505060405180910390fd5b610993610f12565b8110151515610a30576040517f08c379a00000000000000000000000000000000000000000000000000000000081526004018080602001828103825260258152602001807f43616e6e6f742061646420616e2075706461746520666f72206120706173742081526020017f726f756e6400000000000000000000000000000000000000000000000000000081525060400191505060405180910390fd5b610a38610f12565b8111151515610ad5576040517f08c379a00000000000000000000000000000000000000000000000000000000081526004018080602001828103825260278152602001807f43616e6e6f742061646420616e2075706461746520666f72206120667574757281526020017f6520726f756e640000000000000000000000000000000000000000000000000081525060400191505060405180910390fd5b610adf3382610c83565b151515610b7a576040517f08c379a00000000000000000000000000000000000000000000000000000000081526004018080602001828103825260268152602001807f416c726561647920616464656420616e2075706461746520666f72207468697381526020017f20726f756e64000000000000000000000000000000000000000000000000000081525060400191505060405180910390fd5b60066000828152602001908152602001600020829080600181540180825580915050906001820390600052602060002001600090919290919091505550600860003373ffffffffffffffffffffffffffffffffffffffff1673ffffffffffffffffffffffffffffffffffffffff1681526020019081526020016000208290806001815401808255809150509060018203906000526020600020016000909192909190915055508060076000848152602001908152602001600020819055506000600454118015610c625750600454600660008381526020019081526020016000208054905010155b15610c7f57610c6f610f37565b6005600082825401925050819055505b5050565b600080600090505b600860008573ffffffffffffffffffffffffffffffffffffffff1673ffffffffffffffffffffffffffffffffffffffff16815260200190815260200160002080549050811015610d64576000600860008673ffffffffffffffffffffffffffffffffffffffff1673ffffffffffffffffffffffffffffffffffffffff16815260200190815260200160002082815481101515610d2357fe5b906000526020600020015490508360076000838152602001908152602001600020541415610d5657600192505050610d6a565b508080600101915050610c8b565b50600090505b92915050565b6000809054906101000a900473ffffffffffffffffffffffffffffffffffffffff1673ffffffffffffffffffffffffffffffffffffffff163373ffffffffffffffffffffffffffffffffffffffff16141515610e34576040517f08c379a000000000000000000000000000000000000000000000000000000000815260040180806020018281038252601c8152602001807f4e6f74207468652072656769737465726564206576616c7561746f720000000081525060200191505060405180910390fd5b6009600083815260200190815260200160002060009054906101000a900460ff16151515610eca576040517f08c379a00000000000000000000000000000000000000000000000000000000081526004018080602001828103825260208152602001807f5570646174652068617320616c7265616479206265656e20726577617264656481525060200191505060405180910390fd5b80600a60008481526020019081526020016000208190555060016009600084815260200190815260200160002060006101000a81548160ff0219169083151502179055505050565b600080600254426005540103905060035481811515610f2d57fe5b0460010191505090565b600080600254426005540103905060035481811515610f5257fe5b066003540391505090565b6000809054906101000a900473ffffffffffffffffffffffffffffffffffffffff1681565b60015481565b606060066000838152602001908152602001600020805480602002602001604051908101604052809291908181526020018280548015610fe757602002820191906000526020600020905b815481526020019060010190808311610fd3575b50505050509050919050565b600080600190505b611003610f12565b811115156111055760606006600083815260200190815260200160002080548060200260200160405190810160405280929190818152602001828054801561106a57602002820191906000526020600020905b815481526020019060010190808311611056575b5050505050905060008090505b81518110156110f6576000828281518110151561109057fe5b9060200190602002015190508560076000838152602001908152602001600020541115156110e857600a600084848151811015156110ca57fe5b90602001906020020151815260200190815260200160002054850194505b508080600101915050611077565b50508080600101915050610ffb565b5091905056fea165627a7a72305820f8372b193a54fdc91963f73fc9888e4e6dcc618949dd43c26a1b719141cb600a0029",
  "source": "pragma solidity >=0.4.21 <0.7.0;\n\nimport \"./Crowdsource.sol\";\n\n/// @title Deploys and manages Crowdsourcing auxiliaries that make up a Consortium Federated Learning process.\n/// @author Harry Cai\ncontract Consortium {\n    address internal mainAddress;\n\n    address[] internal auxAddresses;\n\n    bytes32 internal genesis;\n\n    uint256 internal roundDuration;\n\n    uint256 internal numTrainers;\n\n    constructor() public {\n        Crowdsource main = new Crowdsource();\n        mainAddress = address(main);\n    }\n\n    /// @return The address of the Crowdsourcing main.\n    function main() external view returns (address) {\n        return mainAddress;\n    }\n\n    /// @return The addresses of the Crowdsourcing auxiliaries.\n    function auxiliaries() external view returns (address[] memory) {\n        return auxAddresses;\n    }\n\n    /// @return round The index of the latest training round among Crowdsourcing auxiliaries and main.\n    function latestRound() external view returns (uint256 round) {\n        Crowdsource main = Crowdsource(mainAddress);\n        round = main.currentRound();\n        for (uint256 i = 0; i < auxAddresses.length; i++) {\n            Crowdsource aux = Crowdsource(auxAddresses[i]);\n            uint256 auxRound = aux.currentRound();\n            if (round < auxRound) {\n                round = auxRound;\n            }\n        }\n    }\n\n    /// @return count Token count of the given address up to and including the given round.\n    function countTokens(address _address, uint256 _round) public view returns (uint256 count) {\n        for (uint256 i = 0; i < auxAddresses.length; i++) {\n            Crowdsource aux = Crowdsource(auxAddresses[i]);\n            count += aux.countTokens(_address, _round);\n        }\n    }\n\n    /// @return count Total number of tokens up to and including the given round.\n    function countTotalTokens(uint256 _round) external view returns (uint256 count) {\n        for (uint256 i = 0; i < auxAddresses.length; i++) {\n            Crowdsource aux = Crowdsource(auxAddresses[i]);\n            count += aux.countTotalTokens(_round);\n        }\n    }\n\n    function setGenesis(\n        bytes32 _cid,\n        uint256 _roundDuration,\n        uint256 _numTrainers\n    ) external {\n        genesis = _cid;\n        roundDuration = _roundDuration;\n        numTrainers = _numTrainers;\n        Crowdsource main = Crowdsource(mainAddress);\n        main.setGenesis(genesis, roundDuration, numTrainers);\n    }\n\n    function addAux(address _evaluator) external {\n        require(genesis != 0, \"Genesis not set\");\n        Crowdsource aux = new Crowdsource();\n        aux.setGenesis(genesis, roundDuration, numTrainers-1);\n        aux.setEvaluator(_evaluator);\n        auxAddresses.push(address(aux));\n    }\n}\n",
  "sourcePath": "/home/dy/2cp_new/contracts/Consortium.sol",
  "compiler": {
    "name": "solc",
    "version": "0.5.1+commit.c8a2cb62.Emscripten.clang"
  },
  "schemaVersion": "3.4.8",
  "updatedAt": "2022-10-27T05:25:08.571Z",
  "networkType": "ethereum",
  "devdoc": {
    "author": "Harry Cai",
    "methods": {
      "auxiliaries()": {
        "return": "The addresses of the Crowdsourcing auxiliaries."
      },
      "countTokens(address,uint256)": {
        "return": "count Token count of the given address up to and including the given round."
      },
      "countTotalTokens(uint256)": {
        "return": "count Total number of tokens up to and including the given round."
      },
      "latestRound()": {
        "return": "round The index of the latest training round among Crowdsourcing auxiliaries and main."
      },
      "main()": {
        "return": "The address of the Crowdsourcing main."
      }
    },
    "title": "Deploys and manages Crowdsourcing auxiliaries that make up a Consortium Federated Learning process."
  },
  "userdoc": {
    "methods": {}
  }
}