{
  "contractName": "Crowdsource",
  "abi": [
    {
      "inputs": [],
      "stateMutability": "nonpayable",
      "type": "constructor"
    },
    {
      "anonymous": false,
      "inputs": [
        {
          "indexed": true,
          "internalType": "address",
          "name": "owner",
          "type": "address"
        },
        {
          "indexed": true,
          "internalType": "address",
          "name": "spender",
          "type": "address"
        },
        {
          "indexed": false,
          "internalType": "uint256",
          "name": "value",
          "type": "uint256"
        }
      ],
      "name": "Approval",
      "type": "event"
    },
    {
      "anonymous": false,
      "inputs": [
        {
          "indexed": false,
          "internalType": "string",
          "name": "_myString",
          "type": "string"
        },
        {
          "indexed": false,
          "internalType": "uint256",
          "name": "round",
          "type": "uint256"
        }
      ],
      "name": "Log",
      "type": "event"
    },
    {
      "anonymous": false,
      "inputs": [
        {
          "indexed": true,
          "internalType": "address",
          "name": "from",
          "type": "address"
        },
        {
          "indexed": true,
          "internalType": "address",
          "name": "to",
          "type": "address"
        },
        {
          "indexed": false,
          "internalType": "uint256",
          "name": "value",
          "type": "uint256"
        }
      ],
      "name": "Transfer",
      "type": "event"
    },
    {
      "inputs": [
        {
          "internalType": "address",
          "name": "owner",
          "type": "address"
        },
        {
          "internalType": "address",
          "name": "spender",
          "type": "address"
        }
      ],
      "name": "allowance",
      "outputs": [
        {
          "internalType": "uint256",
          "name": "",
          "type": "uint256"
        }
      ],
      "stateMutability": "view",
      "type": "function",
      "constant": true
    },
    {
      "inputs": [
        {
          "internalType": "address",
          "name": "spender",
          "type": "address"
        },
        {
          "internalType": "uint256",
          "name": "amount",
          "type": "uint256"
        }
      ],
      "name": "approve",
      "outputs": [
        {
          "internalType": "bool",
          "name": "",
          "type": "bool"
        }
      ],
      "stateMutability": "nonpayable",
      "type": "function"
    },
    {
      "inputs": [
        {
          "internalType": "address",
          "name": "account",
          "type": "address"
        }
      ],
      "name": "balanceOf",
      "outputs": [
        {
          "internalType": "uint256",
          "name": "",
          "type": "uint256"
        }
      ],
      "stateMutability": "view",
      "type": "function",
      "constant": true
    },
    {
      "inputs": [],
      "name": "decimals",
      "outputs": [
        {
          "internalType": "uint8",
          "name": "",
          "type": "uint8"
        }
      ],
      "stateMutability": "view",
      "type": "function",
      "constant": true
    },
    {
      "inputs": [
        {
          "internalType": "address",
          "name": "spender",
          "type": "address"
        },
        {
          "internalType": "uint256",
          "name": "subtractedValue",
          "type": "uint256"
        }
      ],
      "name": "decreaseAllowance",
      "outputs": [
        {
          "internalType": "bool",
          "name": "",
          "type": "bool"
        }
      ],
      "stateMutability": "nonpayable",
      "type": "function"
    },
    {
      "inputs": [],
      "name": "evaluator",
      "outputs": [
        {
          "internalType": "address",
          "name": "",
          "type": "address"
        }
      ],
      "stateMutability": "view",
      "type": "function",
      "constant": true
    },
    {
      "inputs": [],
      "name": "genesis",
      "outputs": [
        {
          "internalType": "bytes32",
          "name": "",
          "type": "bytes32"
        }
      ],
      "stateMutability": "view",
      "type": "function",
      "constant": true
    },
    {
      "inputs": [
        {
          "internalType": "address",
          "name": "spender",
          "type": "address"
        },
        {
          "internalType": "uint256",
          "name": "addedValue",
          "type": "uint256"
        }
      ],
      "name": "increaseAllowance",
      "outputs": [
        {
          "internalType": "bool",
          "name": "",
          "type": "bool"
        }
      ],
      "stateMutability": "nonpayable",
      "type": "function"
    },
    {
      "inputs": [],
      "name": "name",
      "outputs": [
        {
          "internalType": "string",
          "name": "",
          "type": "string"
        }
      ],
      "stateMutability": "view",
      "type": "function",
      "constant": true
    },
    {
      "inputs": [],
      "name": "symbol",
      "outputs": [
        {
          "internalType": "string",
          "name": "",
          "type": "string"
        }
      ],
      "stateMutability": "view",
      "type": "function",
      "constant": true
    },
    {
      "inputs": [],
      "name": "totalSupply",
      "outputs": [
        {
          "internalType": "uint256",
          "name": "",
          "type": "uint256"
        }
      ],
      "stateMutability": "view",
      "type": "function",
      "constant": true
    },
    {
      "inputs": [
        {
          "internalType": "address",
          "name": "to",
          "type": "address"
        },
        {
          "internalType": "uint256",
          "name": "amount",
          "type": "uint256"
        }
      ],
      "name": "transfer",
      "outputs": [
        {
          "internalType": "bool",
          "name": "",
          "type": "bool"
        }
      ],
      "stateMutability": "nonpayable",
      "type": "function"
    },
    {
      "inputs": [
        {
          "internalType": "address",
          "name": "from",
          "type": "address"
        },
        {
          "internalType": "address",
          "name": "to",
          "type": "address"
        },
        {
          "internalType": "uint256",
          "name": "amount",
          "type": "uint256"
        }
      ],
      "name": "transferFrom",
      "outputs": [
        {
          "internalType": "bool",
          "name": "",
          "type": "bool"
        }
      ],
      "stateMutability": "nonpayable",
      "type": "function"
    },
    {
      "inputs": [
        {
          "internalType": "bytes32",
          "name": "_cid",
          "type": "bytes32"
        },
        {
          "internalType": "uint256",
          "name": "_round",
          "type": "uint256"
        }
      ],
      "name": "saveGlobalmodel",
      "outputs": [],
      "stateMutability": "nonpayable",
      "type": "function"
    },
    {
      "inputs": [
        {
          "internalType": "uint256",
          "name": "_round",
          "type": "uint256"
        }
      ],
      "name": "getGlobalmodel",
      "outputs": [
        {
          "internalType": "bytes32",
          "name": "",
          "type": "bytes32"
        }
      ],
      "stateMutability": "view",
      "type": "function",
      "constant": true
    },
    {
      "inputs": [
        {
          "internalType": "bytes32",
          "name": "_cid",
          "type": "bytes32"
        },
        {
          "internalType": "address",
          "name": "_address",
          "type": "address"
        },
        {
          "internalType": "int256",
          "name": "_score",
          "type": "int256"
        }
      ],
      "name": "saveScores",
      "outputs": [],
      "stateMutability": "nonpayable",
      "type": "function"
    },
    {
      "inputs": [
        {
          "internalType": "bytes32",
          "name": "_cid",
          "type": "bytes32"
        }
      ],
      "name": "getScores",
      "outputs": [
        {
          "components": [
            {
              "internalType": "address",
              "name": "account",
              "type": "address"
            },
            {
              "internalType": "int256",
              "name": "score",
              "type": "int256"
            }
          ],
          "internalType": "struct Crowdsource.ScoreandAccount",
          "name": "",
          "type": "tuple"
        }
      ],
      "stateMutability": "view",
      "type": "function",
      "constant": true
    },
    {
      "inputs": [
        {
          "internalType": "uint256",
          "name": "_round",
          "type": "uint256"
        }
      ],
      "name": "completeEval",
      "outputs": [],
      "stateMutability": "nonpayable",
      "type": "function"
    },
    {
      "inputs": [
        {
          "internalType": "uint256",
          "name": "_round",
          "type": "uint256"
        }
      ],
      "name": "getCurTrainers",
      "outputs": [
        {
          "internalType": "address[]",
          "name": "trainers",
          "type": "address[]"
        }
      ],
      "stateMutability": "view",
      "type": "function",
      "constant": true
    },
    {
      "inputs": [
        {
          "internalType": "address",
          "name": "_address",
          "type": "address"
        },
        {
          "internalType": "uint256",
          "name": "_round",
          "type": "uint256"
        }
      ],
      "name": "isTrainer",
      "outputs": [
        {
          "internalType": "bool",
          "name": "trainCheckFlag",
          "type": "bool"
        }
      ],
      "stateMutability": "view",
      "type": "function",
      "constant": true
    },
    {
      "inputs": [
        {
          "internalType": "address[]",
          "name": "_address",
          "type": "address[]"
        },
        {
          "internalType": "uint256",
          "name": "_round",
          "type": "uint256"
        }
      ],
      "name": "setCurTrainer",
      "outputs": [],
      "stateMutability": "nonpayable",
      "type": "function"
    },
    {
      "inputs": [
        {
          "internalType": "uint256",
          "name": "_maxNum",
          "type": "uint256"
        }
      ],
      "name": "changeMaxNumUpdates",
      "outputs": [],
      "stateMutability": "nonpayable",
      "type": "function"
    },
    {
      "inputs": [],
      "name": "currentRound",
      "outputs": [
        {
          "internalType": "uint256",
          "name": "round",
          "type": "uint256"
        }
      ],
      "stateMutability": "view",
      "type": "function",
      "constant": true
    },
    {
      "inputs": [],
      "name": "secondsRemaining",
      "outputs": [
        {
          "internalType": "uint256",
          "name": "remaining",
          "type": "uint256"
        }
      ],
      "stateMutability": "view",
      "type": "function",
      "constant": true
    },
    {
      "inputs": [
        {
          "internalType": "uint256",
          "name": "_round",
          "type": "uint256"
        }
      ],
      "name": "updates",
      "outputs": [
        {
          "internalType": "bytes32[]",
          "name": "",
          "type": "bytes32[]"
        }
      ],
      "stateMutability": "view",
      "type": "function",
      "constant": true
    },
    {
      "inputs": [
        {
          "internalType": "address",
          "name": "_address",
          "type": "address"
        },
        {
          "internalType": "uint256",
          "name": "_round",
          "type": "uint256"
        }
      ],
      "name": "countTokens",
      "outputs": [
        {
          "internalType": "uint256",
          "name": "count",
          "type": "uint256"
        }
      ],
      "stateMutability": "view",
      "type": "function",
      "constant": true
    },
    {
      "inputs": [
        {
          "internalType": "uint256",
          "name": "_round",
          "type": "uint256"
        }
      ],
      "name": "countTotalTokens",
      "outputs": [
        {
          "internalType": "uint256",
          "name": "count",
          "type": "uint256"
        }
      ],
      "stateMutability": "view",
      "type": "function",
      "constant": true
    },
    {
      "inputs": [
        {
          "internalType": "address",
          "name": "_address",
          "type": "address"
        },
        {
          "internalType": "uint256",
          "name": "_round",
          "type": "uint256"
        }
      ],
      "name": "madeContribution",
      "outputs": [
        {
          "internalType": "bool",
          "name": "",
          "type": "bool"
        }
      ],
      "stateMutability": "view",
      "type": "function",
      "constant": true
    },
    {
      "inputs": [
        {
          "internalType": "address",
          "name": "_newEvaluator",
          "type": "address"
        }
      ],
      "name": "setEvaluator",
      "outputs": [],
      "stateMutability": "nonpayable",
      "type": "function"
    },
    {
      "inputs": [
        {
          "internalType": "bytes32",
          "name": "_cid",
          "type": "bytes32"
        },
        {
          "internalType": "uint256",
          "name": "_roundDuration",
          "type": "uint256"
        },
        {
          "internalType": "uint256",
          "name": "_maxNumUpdates",
          "type": "uint256"
        },
        {
          "internalType": "address[]",
          "name": "accounts",
          "type": "address[]"
        }
      ],
      "name": "setGenesis",
      "outputs": [],
      "stateMutability": "nonpayable",
      "type": "function"
    },
    {
      "inputs": [
        {
          "internalType": "bytes32",
          "name": "_cid",
          "type": "bytes32"
        },
        {
          "internalType": "uint256",
          "name": "_round",
          "type": "uint256"
        }
      ],
      "name": "addModelUpdate",
      "outputs": [],
      "stateMutability": "nonpayable",
      "type": "function"
    },
    {
      "inputs": [
        {
          "internalType": "uint256",
          "name": "_round",
          "type": "uint256"
        }
      ],
      "name": "skipRound",
      "outputs": [],
      "stateMutability": "nonpayable",
      "type": "function"
    },
    {
      "inputs": [
        {
          "internalType": "uint256",
          "name": "_round",
          "type": "uint256"
        }
      ],
      "name": "waitTrainers",
      "outputs": [
        {
          "internalType": "bool",
          "name": "",
          "type": "bool"
        }
      ],
      "stateMutability": "view",
      "type": "function",
      "constant": true
    },
    {
      "inputs": [],
      "name": "getmaxNum",
      "outputs": [
        {
          "internalType": "uint256",
          "name": "",
          "type": "uint256"
        }
      ],
      "stateMutability": "view",
      "type": "function",
      "constant": true
    },
    {
      "inputs": [
        {
          "internalType": "bytes32",
          "name": "_cid",
          "type": "bytes32"
        }
      ],
      "name": "getAccountfromUpdate",
      "outputs": [
        {
          "internalType": "address",
          "name": "",
          "type": "address"
        }
      ],
      "stateMutability": "view",
      "type": "function",
      "constant": true
    },
    {
      "inputs": [
        {
          "internalType": "bytes32",
          "name": "_cid",
          "type": "bytes32"
        },
        {
          "internalType": "uint256",
          "name": "_numTokens",
          "type": "uint256"
        }
      ],
      "name": "setTokens",
      "outputs": [],
      "stateMutability": "nonpayable",
      "type": "function"
    }
  ],
  "bytecode": "0x60806040523480156200001157600080fd5b506040518060400160405280600781526020017f464c546f6b656e000000000000000000000000000000000000000000000000008152506040518060400160405280600381526020017f464c5400000000000000000000000000000000000000000000000000000000008152508160039080519060200190620000969291906200028e565b508060049080519060200190620000af9291906200028e565b505050620000cf336a084595161401484a0000006200011660201b60201c565b32600560006101000a81548173ffffffffffffffffffffffffffffffffffffffff021916908373ffffffffffffffffffffffffffffffffffffffff160217905550620004ea565b600073ffffffffffffffffffffffffffffffffffffffff168273ffffffffffffffffffffffffffffffffffffffff16141562000189576040517f08c379a0000000000000000000000000000000000000000000000000000000008152600401620001809062000376565b60405180910390fd5b6200019d600083836200028460201b60201c565b8060026000828254620001b19190620003c6565b92505081905550806000808473ffffffffffffffffffffffffffffffffffffffff1673ffffffffffffffffffffffffffffffffffffffff168152602001908152602001600020600082825401925050819055508173ffffffffffffffffffffffffffffffffffffffff16600073ffffffffffffffffffffffffffffffffffffffff167fddf252ad1be2c89b69c2b068fc378daa952ba7f163c4a11628f55a4df523b3ef8360405162000264919062000398565b60405180910390a362000280600083836200028960201b60201c565b5050565b505050565b505050565b8280546200029c906200042d565b90600052602060002090601f016020900481019282620002c057600085556200030c565b82601f10620002db57805160ff19168380011785556200030c565b828001600101855582156200030c579182015b828111156200030b578251825591602001919060010190620002ee565b5b5090506200031b91906200031f565b5090565b5b808211156200033a57600081600090555060010162000320565b5090565b60006200034d601f83620003b5565b91506200035a82620004c1565b602082019050919050565b620003708162000423565b82525050565b6000602082019050818103600083015262000391816200033e565b9050919050565b6000602082019050620003af600083018462000365565b92915050565b600082825260208201905092915050565b6000620003d38262000423565b9150620003e08362000423565b9250827fffffffffffffffffffffffffffffffffffffffffffffffffffffffffffffffff0382111562000418576200041762000463565b5b828201905092915050565b6000819050919050565b600060028204905060018216806200044657607f821691505b602082108114156200045d576200045c62000492565b5b50919050565b7f4e487b7100000000000000000000000000000000000000000000000000000000600052601160045260246000fd5b7f4e487b7100000000000000000000000000000000000000000000000000000000600052602260045260246000fd5b7f45524332303a206d696e7420746f20746865207a65726f206164647265737300600082015250565b61370680620004fa6000396000f3fe608060405234801561001057600080fd5b506004361061021c5760003560e01c8063940ebef711610125578063be9edc48116100ad578063eaec0b191161007c578063eaec0b19146106ad578063ebe328f8146106c9578063f451145d146106f9578063f490f00e14610717578063fbaa430d146107475761021c565b8063be9edc4814610601578063c3f537311461061d578063cfd1e42d1461064d578063dd62ed3e1461067d5761021c565b8063a7f0b3de116100f4578063a7f0b3de1461054b578063a9059cbb14610569578063b4c2f72714610599578063b4ccfd0b146105c9578063b9ee7dee146105e55761021c565b8063940ebef7146104c157806395d89b41146104df5780639cb93dd1146104fd578063a457c2d71461051b5761021c565b806339509351116101a85780636f851862116101775780636f8518621461040b57806370a0823114610427578063712a2cd8146104575780637552538c146104735780638a19c8bc146104a35761021c565b8063395093511461035f578063465286dd1461038f57806352c42d5c146103bf57806366b80b7b146103ef5761021c565b806318160ddd116101ef57806318160ddd146102a7578063189d7dca146102c557806323b872dd146102f5578063313ce5671461032557806332fd011d146103435761021c565b806302dbbbac1461022157806306fdde031461023d5780630879416a1461025b578063095ea7b314610277575b600080fd5b61023b600480360381019061023691906123e3565b610777565b005b61024561084b565b6040516102529190612b68565b60405180910390f35b61027560048036038101906102709190612687565b6108dd565b005b610291600480360381019061028c91906124a3565b610a03565b60405161029e9190612b32565b60405180910390f35b6102af610a26565b6040516102bc9190612de1565b60405180910390f35b6102df60048036038101906102da91906124a3565b610a30565b6040516102ec9190612de1565b60405180910390f35b61030f600480360381019061030a9190612450565b610b60565b60405161031c9190612b32565b60405180910390f35b61032d610b8f565b60405161033a9190612dfc565b60405180910390f35b61035d600480360381019061035891906125bf565b610b98565b005b610379600480360381019061037491906124a3565b610e3c565b6040516103869190612b32565b60405180910390f35b6103a960048036038101906103a491906124a3565b610e73565b6040516103b69190612b32565b60405180910390f35b6103d960048036038101906103d491906124a3565b610f41565b6040516103e69190612b32565b60405180910390f35b610409600480360381019061040491906125bf565b611039565b005b610425600480360381019061042091906125bf565b6110e5565b005b610441600480360381019061043c91906123e3565b61121e565b60405161044e9190612de1565b60405180910390f35b610471600480360381019061046c91906125ff565b611266565b005b61048d60048036038101906104889190612687565b6113ac565b60405161049a9190612b32565b60405180910390f35b6104ab6113e0565b6040516104b89190612de1565b60405180910390f35b6104c9611420565b6040516104d69190612de1565b60405180910390f35b6104e7611461565b6040516104f49190612b68565b60405180910390f35b6105056114f3565b6040516105129190612ad3565b60405180910390f35b610535600480360381019061053091906124a3565b611519565b6040516105429190612b32565b60405180910390f35b610553611590565b6040516105609190612b4d565b60405180910390f35b610583600480360381019061057e91906124a3565b611596565b6040516105909190612b32565b60405180910390f35b6105b360048036038101906105ae9190612687565b6115b9565b6040516105c09190612b10565b60405180910390f35b6105e360048036038101906105de9190612687565b611624565b005b6105ff60048036038101906105fa9190612687565b6116b2565b005b61061b600480360381019061061691906124e3565b61174c565b005b61063760048036038101906106329190612687565b61188e565b6040516106449190612b4d565b60405180910390f35b61066760048036038101906106629190612687565b6118ab565b6040516106749190612aee565b60405180910390f35b61069760048036038101906106929190612410565b61194c565b6040516106a49190612de1565b60405180910390f35b6106c760048036038101906106c2919061256c565b6119d3565b005b6106e360048036038101906106de9190612687565b611afa565b6040516106f09190612de1565b60405180910390f35b610701611c26565b60405161070e9190612de1565b60405180910390f35b610731600480360381019061072c919061253f565b611c30565b60405161073e9190612ad3565b60405180910390f35b610761600480360381019061075c919061253f565b611c6d565b60405161076e9190612dc6565b60405180910390f35b600560009054906101000a900473ffffffffffffffffffffffffffffffffffffffff1673ffffffffffffffffffffffffffffffffffffffff163273ffffffffffffffffffffffffffffffffffffffff1614610807576040517f08c379a00000000000000000000000000000000000000000000000000000000081526004016107fe90612da6565b60405180910390fd5b80600560006101000a81548173ffffffffffffffffffffffffffffffffffffffff021916908373ffffffffffffffffffffffffffffffffffffffff16021790555050565b60606003805461085a9061304d565b80601f01602080910402602001604051908101604052809291908181526020018280546108869061304d565b80156108d35780601f106108a8576101008083540402835291602001916108d3565b820191906000526020600020905b8154815290600101906020018083116108b657829003601f168201915b5050505050905090565b600560009054906101000a900473ffffffffffffffffffffffffffffffffffffffff1673ffffffffffffffffffffffffffffffffffffffff163273ffffffffffffffffffffffffffffffffffffffff161461096d576040517f08c379a000000000000000000000000000000000000000000000000000000000815260040161096490612da6565b60405180910390fd5b600015156012600083815260200190815260200160002060009054906101000a900460ff161515146109d4576040517f08c379a00000000000000000000000000000000000000000000000000000000081526004016109cb90612bea565b60405180910390fd5b60016012600083815260200190815260200160002060006101000a81548160ff02191690831515021790555050565b600080610a0e611d8a565b9050610a1b818585611d92565b600191505092915050565b6000600254905090565b600080600d60008573ffffffffffffffffffffffffffffffffffffffff1673ffffffffffffffffffffffffffffffffffffffff168152602001908152602001600020805480602002602001604051908101604052809291908181526020018280548015610abc57602002820191906000526020600020905b815481526020019060010190808311610aa8575b5050505050905060005b8151811015610b58576000828281518110610ae457610ae36131b7565b5b6020026020010151905084600c60008381526020019081526020016000205411610b445760106000848481518110610b1f57610b1e6131b7565b5b602002602001015181526020019081526020016000205484610b419190612ef6565b93505b508080610b50906130b0565b915050610ac6565b505092915050565b600080610b6b611d8a565b9050610b78858285611f5d565b610b83858585611fe9565b60019150509392505050565b60006012905090565b7fdd970dd9b5bfe707922155b058a407655cb18288b807e2216442bca8ad83d6b5610bc16113e0565b604051610bce9190612cb8565b60405180910390a17fdd970dd9b5bfe707922155b058a407655cb18288b807e2216442bca8ad83d6b581604051610c059190612c6a565b60405180910390a160008111610c50576040517f08c379a0000000000000000000000000000000000000000000000000000000008152600401610c4790612d86565b60405180910390fd5b610c586113e0565b811015610c9a576040517f08c379a0000000000000000000000000000000000000000000000000000000008152600401610c9190612d26565b60405180910390fd5b610ca26113e0565b811115610ce4576040517f08c379a0000000000000000000000000000000000000000000000000000000008152600401610cdb90612c2a565b60405180910390fd5b610cee3282610f41565b15610d2e576040517f08c379a0000000000000000000000000000000000000000000000000000000008152600401610d2590612d46565b60405180910390fd5b600b6000828152602001908152602001600020829080600181540180825580915050600190039060005260206000200160009091909190915055600d60003273ffffffffffffffffffffffffffffffffffffffff1673ffffffffffffffffffffffffffffffffffffffff16815260200190815260200160002082908060018154018082558091505060019003906000526020600020016000909190919091505532600e600084815260200190815260200160002060006101000a81548173ffffffffffffffffffffffffffffffffffffffff021916908373ffffffffffffffffffffffffffffffffffffffff16021790555080600c6000848152602001908152602001600020819055505050565b600080610e47611d8a565b9050610e68818585610e59858961194c565b610e639190612ef6565b611d92565b600191505092915050565b6000805b6011600084815260200190815260200160002080549050811015610f3a578373ffffffffffffffffffffffffffffffffffffffff16601160008581526020019081526020016000208281548110610ed157610ed06131b7565b5b9060005260206000200160009054906101000a900473ffffffffffffffffffffffffffffffffffffffff1673ffffffffffffffffffffffffffffffffffffffff161415610f215760019150610f26565b610f27565b5b8080610f32906130b0565b915050610e77565b5092915050565b600080600090505b600d60008573ffffffffffffffffffffffffffffffffffffffff1673ffffffffffffffffffffffffffffffffffffffff1681526020019081526020016000208054905081101561102d576000600d60008673ffffffffffffffffffffffffffffffffffffffff1673ffffffffffffffffffffffffffffffffffffffff1681526020019081526020016000208281548110610fe657610fe56131b7565b5b9060005260206000200154905083600c600083815260200190815260200160002054141561101957600192505050611033565b508080611025906130b0565b915050610f49565b50600090505b92915050565b600560009054906101000a900473ffffffffffffffffffffffffffffffffffffffff1673ffffffffffffffffffffffffffffffffffffffff163273ffffffffffffffffffffffffffffffffffffffff16146110c9576040517f08c379a00000000000000000000000000000000000000000000000000000000081526004016110c090612da6565b60405180910390fd5b8160136000838152602001908152602001600020819055505050565b600560009054906101000a900473ffffffffffffffffffffffffffffffffffffffff1673ffffffffffffffffffffffffffffffffffffffff163273ffffffffffffffffffffffffffffffffffffffff1614611175576040517f08c379a000000000000000000000000000000000000000000000000000000000815260040161116c90612da6565b60405180910390fd5b600f600083815260200190815260200160002060009054906101000a900460ff16156111d6576040517f08c379a00000000000000000000000000000000000000000000000000000000081526004016111cd90612c98565b60405180910390fd5b8060106000848152602001908152602001600020819055506001600f600084815260200190815260200160002060006101000a81548160ff0219169083151502179055505050565b60008060008373ffffffffffffffffffffffffffffffffffffffff1673ffffffffffffffffffffffffffffffffffffffff168152602001908152602001600020549050919050565b600560009054906101000a900473ffffffffffffffffffffffffffffffffffffffff1673ffffffffffffffffffffffffffffffffffffffff163273ffffffffffffffffffffffffffffffffffffffff16146112f6576040517f08c379a00000000000000000000000000000000000000000000000000000000081526004016112ed90612da6565b60405180910390fd5b6000801b6006541461133d576040517f08c379a000000000000000000000000000000000000000000000000000000000815260040161133490612baa565b60405180910390fd5b846006819055504260078190555083600881905550826009819055506113a5828280806020026020016040519081016040528093929190818152602001838360200280828437600081840152601f19601f82011690508083019250505050505050600161174c565b5050505050565b6000600954600b600084815260200190815260200160002080549050106113d657600190506113db565b600090505b919050565b60008060075442600a546113f49190612ef6565b6113fe9190612f7d565b90506008548161140e9190612f4c565b600161141a9190612ef6565b91505090565b60008060075442600a546114349190612ef6565b61143e9190612f7d565b90506008548161144e91906130f9565b60085461145b9190612f7d565b91505090565b6060600480546114709061304d565b80601f016020809104026020016040519081016040528092919081815260200182805461149c9061304d565b80156114e95780601f106114be576101008083540402835291602001916114e9565b820191906000526020600020905b8154815290600101906020018083116114cc57829003601f168201915b5050505050905090565b600560009054906101000a900473ffffffffffffffffffffffffffffffffffffffff1681565b600080611524611d8a565b90506000611532828661194c565b905083811015611577576040517f08c379a000000000000000000000000000000000000000000000000000000000815260040161156e90612d66565b60405180910390fd5b6115848286868403611d92565b60019250505092915050565b60065481565b6000806115a1611d8a565b90506115ae818585611fe9565b600191505092915050565b6060600b600083815260200190815260200160002080548060200260200160405190810160405280929190818152602001828054801561161857602002820191906000526020600020905b815481526020019060010190808311611604575b50505050509050919050565b600060095411801561164e5750600954600b60008381526020019081526020016000208054905010155b80156116895750600115156012600083815260200190815260200160002060009054906101000a900460ff16151514806116885750600181145b5b156116af57611696611420565b600a60008282546116a79190612ef6565b925050819055505b50565b600560009054906101000a900473ffffffffffffffffffffffffffffffffffffffff1673ffffffffffffffffffffffffffffffffffffffff163273ffffffffffffffffffffffffffffffffffffffff1614611742576040517f08c379a000000000000000000000000000000000000000000000000000000000815260040161173990612da6565b60405180910390fd5b8060098190555050565b600560009054906101000a900473ffffffffffffffffffffffffffffffffffffffff1673ffffffffffffffffffffffffffffffffffffffff163273ffffffffffffffffffffffffffffffffffffffff16146117dc576040517f08c379a00000000000000000000000000000000000000000000000000000000081526004016117d390612da6565b60405180910390fd5b60005b8251811015611889576011600083815260200190815260200160002083828151811061180e5761180d6131b7565b5b60200260200101519080600181540180825580915050600190039060005260206000200160009091909190916101000a81548173ffffffffffffffffffffffffffffffffffffffff021916908373ffffffffffffffffffffffffffffffffffffffff1602179055508080611881906130b0565b9150506117df565b505050565b600060136000838152602001908152602001600020549050919050565b60606011600083815260200190815260200160002080548060200260200160405190810160405280929190818152602001828054801561194057602002820191906000526020600020905b8160009054906101000a900473ffffffffffffffffffffffffffffffffffffffff1673ffffffffffffffffffffffffffffffffffffffff16815260200190600101908083116118f6575b50505050509050919050565b6000600160008473ffffffffffffffffffffffffffffffffffffffff1673ffffffffffffffffffffffffffffffffffffffff16815260200190815260200160002060008373ffffffffffffffffffffffffffffffffffffffff1673ffffffffffffffffffffffffffffffffffffffff16815260200190815260200160002054905092915050565b600560009054906101000a900473ffffffffffffffffffffffffffffffffffffffff1673ffffffffffffffffffffffffffffffffffffffff163273ffffffffffffffffffffffffffffffffffffffff1614611a63576040517f08c379a0000000000000000000000000000000000000000000000000000000008152600401611a5a90612da6565b60405180910390fd5b60405180604001604052808373ffffffffffffffffffffffffffffffffffffffff168152602001828152506014600085815260200190815260200160002060008201518160000160006101000a81548173ffffffffffffffffffffffffffffffffffffffff021916908373ffffffffffffffffffffffffffffffffffffffff16021790555060208201518160010155905050505050565b600080600190505b611b0a6113e0565b8111611c20576000600b6000838152602001908152602001600020805480602002602001604051908101604052809291908181526020018280548015611b6f57602002820191906000526020600020905b815481526020019060010190808311611b5b575b5050505050905060005b8151811015611c0b576000828281518110611b9757611b966131b7565b5b6020026020010151905085600c60008381526020019081526020016000205411611bf75760106000848481518110611bd257611bd16131b7565b5b602002602001015181526020019081526020016000205485611bf49190612ef6565b94505b508080611c03906130b0565b915050611b79565b50508080611c18906130b0565b915050611b02565b50919050565b6000600954905090565b6000600e600083815260200190815260200160002060009054906101000a900473ffffffffffffffffffffffffffffffffffffffff169050919050565b611c7561226b565b600560009054906101000a900473ffffffffffffffffffffffffffffffffffffffff1673ffffffffffffffffffffffffffffffffffffffff163273ffffffffffffffffffffffffffffffffffffffff1614611d05576040517f08c379a0000000000000000000000000000000000000000000000000000000008152600401611cfc90612da6565b60405180910390fd5b601460008381526020019081526020016000206040518060400160405290816000820160009054906101000a900473ffffffffffffffffffffffffffffffffffffffff1673ffffffffffffffffffffffffffffffffffffffff1673ffffffffffffffffffffffffffffffffffffffff1681526020016001820154815250509050919050565b600033905090565b600073ffffffffffffffffffffffffffffffffffffffff168373ffffffffffffffffffffffffffffffffffffffff161415611e02576040517f08c379a0000000000000000000000000000000000000000000000000000000008152600401611df990612d06565b60405180910390fd5b600073ffffffffffffffffffffffffffffffffffffffff168273ffffffffffffffffffffffffffffffffffffffff161415611e72576040517f08c379a0000000000000000000000000000000000000000000000000000000008152600401611e6990612bca565b60405180910390fd5b80600160008573ffffffffffffffffffffffffffffffffffffffff1673ffffffffffffffffffffffffffffffffffffffff16815260200190815260200160002060008473ffffffffffffffffffffffffffffffffffffffff1673ffffffffffffffffffffffffffffffffffffffff168152602001908152602001600020819055508173ffffffffffffffffffffffffffffffffffffffff168373ffffffffffffffffffffffffffffffffffffffff167f8c5be1e5ebec7d5bd14f71427d1e84f3dd0314c0f7b2291e5b200ac8c7c3b92583604051611f509190612de1565b60405180910390a3505050565b6000611f69848461194c565b90507fffffffffffffffffffffffffffffffffffffffffffffffffffffffffffffffff8114611fe35781811015611fd5576040517f08c379a0000000000000000000000000000000000000000000000000000000008152600401611fcc90612c0a565b60405180910390fd5b611fe28484848403611d92565b5b50505050565b600073ffffffffffffffffffffffffffffffffffffffff168373ffffffffffffffffffffffffffffffffffffffff161415612059576040517f08c379a000000000000000000000000000000000000000000000000000000000815260040161205090612ce6565b60405180910390fd5b600073ffffffffffffffffffffffffffffffffffffffff168273ffffffffffffffffffffffffffffffffffffffff1614156120c9576040517f08c379a00000000000000000000000000000000000000000000000000000000081526004016120c090612b8a565b60405180910390fd5b6120d4838383612261565b60008060008573ffffffffffffffffffffffffffffffffffffffff1673ffffffffffffffffffffffffffffffffffffffff1681526020019081526020016000205490508181101561215a576040517f08c379a000000000000000000000000000000000000000000000000000000000815260040161215190612c4a565b60405180910390fd5b8181036000808673ffffffffffffffffffffffffffffffffffffffff1673ffffffffffffffffffffffffffffffffffffffff16815260200190815260200160002081905550816000808573ffffffffffffffffffffffffffffffffffffffff1673ffffffffffffffffffffffffffffffffffffffff168152602001908152602001600020600082825401925050819055508273ffffffffffffffffffffffffffffffffffffffff168473ffffffffffffffffffffffffffffffffffffffff167fddf252ad1be2c89b69c2b068fc378daa952ba7f163c4a11628f55a4df523b3ef846040516122489190612de1565b60405180910390a361225b848484612266565b50505050565b505050565b505050565b6040518060400160405280600073ffffffffffffffffffffffffffffffffffffffff168152602001600081525090565b60006122ae6122a984612e3c565b612e17565b905080838252602082019050828560208602820111156122d1576122d061321f565b5b60005b8581101561230157816122e7888261230b565b8452602084019350602083019250506001810190506122d4565b5050509392505050565b60008135905061231a81613674565b92915050565b60008083601f8401126123365761233561321a565b5b8235905067ffffffffffffffff81111561235357612352613215565b5b60208301915083602082028301111561236f5761236e61321f565b5b9250929050565b600082601f83011261238b5761238a61321a565b5b813561239b84826020860161229b565b91505092915050565b6000813590506123b38161368b565b92915050565b6000813590506123c8816136a2565b92915050565b6000813590506123dd816136b9565b92915050565b6000602082840312156123f9576123f8613229565b5b60006124078482850161230b565b91505092915050565b6000806040838503121561242757612426613229565b5b60006124358582860161230b565b92505060206124468582860161230b565b9150509250929050565b60008060006060848603121561246957612468613229565b5b60006124778682870161230b565b93505060206124888682870161230b565b9250506040612499868287016123ce565b9150509250925092565b600080604083850312156124ba576124b9613229565b5b60006124c88582860161230b565b92505060206124d9858286016123ce565b9150509250929050565b600080604083850312156124fa576124f9613229565b5b600083013567ffffffffffffffff81111561251857612517613224565b5b61252485828601612376565b9250506020612535858286016123ce565b9150509250929050565b60006020828403121561255557612554613229565b5b6000612563848285016123a4565b91505092915050565b60008060006060848603121561258557612584613229565b5b6000612593868287016123a4565b93505060206125a48682870161230b565b92505060406125b5868287016123b9565b9150509250925092565b600080604083850312156125d6576125d5613229565b5b60006125e4858286016123a4565b92505060206125f5858286016123ce565b9150509250929050565b60008060008060006080868803121561261b5761261a613229565b5b6000612629888289016123a4565b955050602061263a888289016123ce565b945050604061264b888289016123ce565b935050606086013567ffffffffffffffff81111561266c5761266b613224565b5b61267888828901612320565b92509250509295509295909350565b60006020828403121561269d5761269c613229565b5b60006126ab848285016123ce565b91505092915050565b60006126c083836126e4565b60208301905092915050565b60006126d883836127cd565b60208301905092915050565b6126ed81612fb1565b82525050565b6126fc81612fb1565b82525050565b600061270d82612e88565b6127178185612ec3565b935061272283612e68565b8060005b8381101561275357815161273a88826126b4565b975061274583612ea9565b925050600181019050612726565b5085935050505092915050565b600061276b82612e93565b6127758185612ed4565b935061278083612e78565b8060005b838110156127b157815161279888826126cc565b97506127a383612eb6565b925050600181019050612784565b5085935050505092915050565b6127c781612fc3565b82525050565b6127d681612fcf565b82525050565b6127e581612fcf565b82525050565b6127f481612fd9565b82525050565b600061280582612e9e565b61280f8185612ee5565b935061281f81856020860161301a565b6128288161322e565b840191505092915050565b6000612840602383612ee5565b915061284b8261323f565b604082019050919050565b6000612863601c83612ee5565b915061286e8261328e565b602082019050919050565b6000612886602283612ee5565b9150612891826132b7565b604082019050919050565b60006128a9601d83612ee5565b91506128b482613306565b602082019050919050565b60006128cc601d83612ee5565b91506128d78261332f565b602082019050919050565b60006128ef602783612ee5565b91506128fa82613358565b604082019050919050565b6000612912602683612ee5565b915061291d826133a7565b604082019050919050565b6000612935601183612ee5565b9150612940826133f6565b602082019050919050565b6000612958602083612ee5565b91506129638261341f565b602082019050919050565b600061297b600b83612ee5565b915061298682613448565b602082019050919050565b600061299e602583612ee5565b91506129a982613471565b604082019050919050565b60006129c1602483612ee5565b91506129cc826134c0565b604082019050919050565b60006129e4602583612ee5565b91506129ef8261350f565b604082019050919050565b6000612a07602683612ee5565b9150612a128261355e565b604082019050919050565b6000612a2a602583612ee5565b9150612a35826135ad565b604082019050919050565b6000612a4d602a83612ee5565b9150612a58826135fc565b604082019050919050565b6000612a70601c83612ee5565b9150612a7b8261364b565b602082019050919050565b604082016000820151612a9c60008501826126e4565b506020820151612aaf60208501826127eb565b50505050565b612abe81613003565b82525050565b612acd8161300d565b82525050565b6000602082019050612ae860008301846126f3565b92915050565b60006020820190508181036000830152612b088184612702565b905092915050565b60006020820190508181036000830152612b2a8184612760565b905092915050565b6000602082019050612b4760008301846127be565b92915050565b6000602082019050612b6260008301846127dc565b92915050565b60006020820190508181036000830152612b8281846127fa565b905092915050565b60006020820190508181036000830152612ba381612833565b9050919050565b60006020820190508181036000830152612bc381612856565b9050919050565b60006020820190508181036000830152612be381612879565b9050919050565b60006020820190508181036000830152612c038161289c565b9050919050565b60006020820190508181036000830152612c23816128bf565b9050919050565b60006020820190508181036000830152612c43816128e2565b9050919050565b60006020820190508181036000830152612c6381612905565b9050919050565b60006040820190508181036000830152612c8381612928565b9050612c926020830184612ab5565b92915050565b60006020820190508181036000830152612cb18161294b565b9050919050565b60006040820190508181036000830152612cd18161296e565b9050612ce06020830184612ab5565b92915050565b60006020820190508181036000830152612cff81612991565b9050919050565b60006020820190508181036000830152612d1f816129b4565b9050919050565b60006020820190508181036000830152612d3f816129d7565b9050919050565b60006020820190508181036000830152612d5f816129fa565b9050919050565b60006020820190508181036000830152612d7f81612a1d565b9050919050565b60006020820190508181036000830152612d9f81612a40565b9050919050565b60006020820190508181036000830152612dbf81612a63565b9050919050565b6000604082019050612ddb6000830184612a86565b92915050565b6000602082019050612df66000830184612ab5565b92915050565b6000602082019050612e116000830184612ac4565b92915050565b6000612e21612e32565b9050612e2d828261307f565b919050565b6000604051905090565b600067ffffffffffffffff821115612e5757612e566131e6565b5b602082029050602081019050919050565b6000819050602082019050919050565b6000819050602082019050919050565b600081519050919050565b600081519050919050565b600081519050919050565b6000602082019050919050565b6000602082019050919050565b600082825260208201905092915050565b600082825260208201905092915050565b600082825260208201905092915050565b6000612f0182613003565b9150612f0c83613003565b9250827fffffffffffffffffffffffffffffffffffffffffffffffffffffffffffffffff03821115612f4157612f4061312a565b5b828201905092915050565b6000612f5782613003565b9150612f6283613003565b925082612f7257612f71613159565b5b828204905092915050565b6000612f8882613003565b9150612f9383613003565b925082821015612fa657612fa561312a565b5b828203905092915050565b6000612fbc82612fe3565b9050919050565b60008115159050919050565b6000819050919050565b6000819050919050565b600073ffffffffffffffffffffffffffffffffffffffff82169050919050565b6000819050919050565b600060ff82169050919050565b60005b8381101561303857808201518184015260208101905061301d565b83811115613047576000848401525b50505050565b6000600282049050600182168061306557607f821691505b6020821081141561307957613078613188565b5b50919050565b6130888261322e565b810181811067ffffffffffffffff821117156130a7576130a66131e6565b5b80604052505050565b60006130bb82613003565b91507fffffffffffffffffffffffffffffffffffffffffffffffffffffffffffffffff8214156130ee576130ed61312a565b5b600182019050919050565b600061310482613003565b915061310f83613003565b92508261311f5761311e613159565b5b828206905092915050565b7f4e487b7100000000000000000000000000000000000000000000000000000000600052601160045260246000fd5b7f4e487b7100000000000000000000000000000000000000000000000000000000600052601260045260246000fd5b7f4e487b7100000000000000000000000000000000000000000000000000000000600052602260045260246000fd5b7f4e487b7100000000000000000000000000000000000000000000000000000000600052603260045260246000fd5b7f4e487b7100000000000000000000000000000000000000000000000000000000600052604160045260246000fd5b600080fd5b600080fd5b600080fd5b600080fd5b600080fd5b6000601f19601f8301169050919050565b7f45524332303a207472616e7366657220746f20746865207a65726f206164647260008201527f6573730000000000000000000000000000000000000000000000000000000000602082015250565b7f47656e657369732068617320616c7265616479206265656e2073657400000000600082015250565b7f45524332303a20617070726f766520746f20746865207a65726f20616464726560008201527f7373000000000000000000000000000000000000000000000000000000000000602082015250565b7f6576616c756174696f6e20636f6d706c6574656420616c72656164792e000000600082015250565b7f45524332303a20696e73756666696369656e7420616c6c6f77616e6365000000600082015250565b7f43616e6e6f742061646420616e2075706461746520666f72206120667574757260008201527f6520726f756e6400000000000000000000000000000000000000000000000000602082015250565b7f45524332303a207472616e7366657220616d6f756e742065786365656473206260008201527f616c616e63650000000000000000000000000000000000000000000000000000602082015250565b7f696e73657274656420526f756e64203a20000000000000000000000000000000600082015250565b7f5570646174652068617320616c7265616479206265656e207265776172646564600082015250565b7f637572526f756e64203a20000000000000000000000000000000000000000000600082015250565b7f45524332303a207472616e736665722066726f6d20746865207a65726f20616460008201527f6472657373000000000000000000000000000000000000000000000000000000602082015250565b7f45524332303a20617070726f76652066726f6d20746865207a65726f2061646460008201527f7265737300000000000000000000000000000000000000000000000000000000602082015250565b7f43616e6e6f742061646420616e2075706461746520666f72206120706173742060008201527f726f756e64000000000000000000000000000000000000000000000000000000602082015250565b7f416c726561647920616464656420616e2075706461746520666f72207468697360008201527f20726f756e640000000000000000000000000000000000000000000000000000602082015250565b7f45524332303a2064656372656173656420616c6c6f77616e63652062656c6f7760008201527f207a65726f000000000000000000000000000000000000000000000000000000602082015250565b7f43616e6e6f742061646420616e2075706461746520666f72207468652067656e60008201527f6573697320726f756e6400000000000000000000000000000000000000000000602082015250565b7f4e6f74207468652072656769737465726564206576616c7561746f7200000000600082015250565b61367d81612fb1565b811461368857600080fd5b50565b61369481612fcf565b811461369f57600080fd5b50565b6136ab81612fd9565b81146136b657600080fd5b50565b6136c281613003565b81146136cd57600080fd5b5056fea264697066735822122015a380bae119b50cdc92c882798287dcf8ae99fe8bb8d483eb674c5125462d0564736f6c63430008060033",
  "immutableReferences": {},
  "source": "// pragma solidity >=0.4.21 <0.7.0;\npragma solidity ^0.8.6;\npragma experimental ABIEncoderV2;\n\n/// @title Records contributions made to a Crowdsourcing Federated Learning process\n/// @author Harry Cai\nimport \"@openzeppelin/contracts/token/ERC20/ERC20.sol\";\n\ncontract Crowdsource is ERC20 {\n    /// @notice Address of contract creator, who evaluates updates\n    address public evaluator;\n\n    /// @notice IPFS CID of genesis model\n    bytes32 public genesis;\n\n    /// @dev The timestamp when the genesis model was upload\n    uint256 internal genesisTimestamp;\n\n    /// @dev Duration of each training round in seconds\n    uint256 internal roundDuration;\n\n    /// @dev Number of updates before training round automatically ends. (If 0, always wait the full roundDuration)\n    uint256 internal maxNumUpdates;\n\n    /// @dev Total number of seconds skipped when training rounds finish early\n    uint256 internal timeSkipped;\n\n    /// @dev The IPFS CIDs of model updates in each round\n    mapping(uint256 => bytes32[]) internal updatesInRound;\n\n    /// @dev The round to which each model update belongs\n    mapping(bytes32 => uint256) internal updateRound;\n\n    /// @dev The IPFS CIDs of model updates made by each address\n    mapping(address => bytes32[]) internal updatesFromAddress;\n\n    /// @dev The Account of model updates \n    mapping( bytes32 => address) internal accountsFromUpdate;\n\n    /// @dev Whether or not each model update has been evaluated\n    mapping(bytes32 => bool) internal tokensAssigned;\n\n    /// @dev The contributivity score for each model update, if evaluated\n    mapping(bytes32 => uint256) internal tokens;\n\n    /// @dev Current Round's Trainer list\n    mapping(uint256 => address[]) internal curTrainers;\n\n    /// @dev Current Round's Evaluation complete flag\n    mapping(uint256 => bool) internal evalflag;\n\n    /// @dev Global model for each rounds\n    mapping(uint256 => bytes32) internal globalmodel;\n\n    struct ScoreandAccount {\n        address account;\n        int256 score;\n    }\n\n    /// @dev Account, Scores by cids \n    mapping(bytes32 => ScoreandAccount) internal score;\n\n    event Log(string _myString , uint256 round);\n\n    /// @notice Constructor. The address that deploys the contract is set as the evaluator.\n    constructor() public ERC20(\"FLToken\",\"FLT\"){\n        // evaluator = msg.sender;\n        _mint(msg.sender,1e25);\n        evaluator = tx.origin;\n    }\n\n    modifier evaluatorOnly() {\n        // require(msg.sender == evaluator, \"Not the registered evaluator\");\n        require(tx.origin == evaluator, \"Not the registered evaluator\");\n        _;\n    }\n\n    function saveGlobalmodel(bytes32 _cid, uint256 _round) external evaluatorOnly(){\n        globalmodel[_round] = _cid;\n    }\n\n    function getGlobalmodel (uint256 _round) external view returns (bytes32){\n        return globalmodel[_round];\n    }\n\n    function saveScores(bytes32 _cid, address _address, int256 _score) external evaluatorOnly(){\n        score[_cid] = ScoreandAccount(_address,_score);\n    }\n\n    function getScores(bytes32 _cid) external view evaluatorOnly returns(ScoreandAccount memory){\n        return score[_cid];\n    }\n\n    function completeEval(uint256 _round) external evaluatorOnly() {\n        require(evalflag[_round] == false,\"evaluation completed already.\");\n        evalflag[_round] = true;\n    }\n\n    function getCurTrainers (uint256 _round) external view returns (address[] memory  trainers){\n        trainers = curTrainers[_round];\n    }\n\n    function isTrainer(address _address, uint256 _round) external view returns (bool trainCheckFlag){\n        trainCheckFlag=false;\n        \n        for(uint i = 0; i < curTrainers[_round].length ; i++){\n            if(curTrainers[_round][i] == _address){\n                trainCheckFlag= true;\n            }else{\n                continue;\n            }\n        } \n        return trainCheckFlag;\n    }\n\n    function setCurTrainer(address[] memory _address, uint256 _round) public evaluatorOnly() {\n        for (uint i = 0; i<_address.length; i++){\n             curTrainers[_round].push(_address[i]);\n        }\n    }\n\n    function changeMaxNumUpdates(uint256 _maxNum) external evaluatorOnly(){\n        maxNumUpdates = _maxNum;\n    }\n\n    /// @return round The index of the current training round.\n    function currentRound() public view returns (uint256 round) {\n        uint256 timeElapsed = timeSkipped + block.timestamp - genesisTimestamp;\n        round = 1 + (timeElapsed / roundDuration);\n    }\n\n\n    /// @return remaining The number of seconds remaining in the current training round.\n    function secondsRemaining() public view returns (uint256 remaining) {\n        uint256 timeElapsed = timeSkipped + block.timestamp - genesisTimestamp;\n        remaining = roundDuration - (timeElapsed % roundDuration);\n    }\n\n    /// @return The CID's of updates in the given training round.\n    function updates(uint256 _round) external view returns (bytes32[] memory) {\n        return updatesInRound[_round];\n    }\n\n    /// @return count Token count of the given address up to and including the given round.\n    function countTokens(address _address, uint256 _round)\n        external\n        view\n        returns (uint256 count)\n    {\n        bytes32[] memory updates = updatesFromAddress[_address];\n        for (uint256 i = 0; i < updates.length; i++) {\n            bytes32 update = updates[i];\n            if (updateRound[update] <= _round) {\n                count += tokens[updates[i]];\n            }\n        }\n    }\n\n    /// @return count Total number of tokens up to and including the given round.\n    function countTotalTokens(uint256 _round) external view returns (uint256 count) {\n        for (uint256 i = 1; i <= currentRound(); i++) {\n            bytes32[] memory updates = updatesInRound[i];\n            for (uint256 j = 0; j < updates.length; j++) {\n                bytes32 update = updates[j];\n                if (updateRound[update] <= _round){\n                    count += tokens[updates[j]];\n                }\n            }\n        }\n    }\n\n    /// @return Whether the given address made a contribution in the given round.\n    function madeContribution(address _address, uint256 _round)\n        public\n        view\n        returns (bool)\n    {\n        for (uint256 i = 0; i < updatesFromAddress[_address].length; i++) {\n            bytes32 update = updatesFromAddress[_address][i];\n            if (updateRound[update] == _round) {\n                return true;\n            }\n        }\n        return false;\n    }\n\n    /// @notice Sets a new evaluator.\n    function setEvaluator(address _newEvaluator) external evaluatorOnly() {\n        evaluator = _newEvaluator;\n    }\n\n    /// @notice Starts training by setting the genesis model. Can only be called once.\n    /// @param _cid The CID of the genesis model\n    /// @param _roundDuration Number of seconds per training round\n    /// @param _maxNumUpdates Number of updates per round before training round automatically ends. (If 0, always wait the full roundDuration)\n    /// @dev Does not reset the training process! Deploy a new contract instead.\n    function setGenesis(\n        bytes32 _cid,\n        uint256 _roundDuration,\n        uint256 _maxNumUpdates,\n        address[] calldata accounts\n    ) external evaluatorOnly() {\n        require(genesis == 0, \"Genesis has already been set\");\n        genesis = _cid;\n        genesisTimestamp = block.timestamp;\n        roundDuration = _roundDuration;\n        maxNumUpdates = _maxNumUpdates;\n        setCurTrainer(accounts, 1);\n    }\n\n    /// @notice Records a training contribution in the current round.\n    function addModelUpdate(bytes32 _cid, uint256 _round) external {\n        emit Log(\"curRound : \", currentRound());\n        emit Log(\"inserted Round : \", _round);\n        require(_round > 0, \"Cannot add an update for the genesis round\");\n        require(\n            _round >= currentRound(),\n            \"Cannot add an update for a past round\"\n        );\n        require(\n            _round <= currentRound(),\n            \"Cannot add an update for a future round\"\n        );\n        require(\n            // !madeContribution(msg.sender, _round),\n            !madeContribution(tx.origin, _round),\n            \"Already added an update for this round\"\n        );\n\n        updatesInRound[_round].push(_cid);\n        // updatesFromAddress[msg.sender].push(_cid);\n        // accountsFromUpdate[_cid] = msg.sender;\n        updatesFromAddress[tx.origin].push(_cid);\n        accountsFromUpdate[_cid] = tx.origin;\n        updateRound[_cid] = _round;\n\n        // if (\n        //     maxNumUpdates > 0 && updatesInRound[_round].length >= maxNumUpdates && _round == 1\n        // ) {\n        //     // Skip to the end of training round\n        //     timeSkipped += secondsRemaining();\n        // }\n    }\n\n     function skipRound(uint256 _round) \n        external\n    {\n        // require( maxNumUpdates > 0 && updatesInRound[_round].length >= maxNumUpdates, \"trainers did not finish their training process\");\n        // require( evalflag[_round] == true, \"evaluation is not completed\");\n        // timeSkipped += secondsRemaining();\n        if (\n            maxNumUpdates > 0 && updatesInRound[_round].length >= maxNumUpdates && (evalflag[_round] == true || _round ==1)\n        ) {\n            // Skip to the end of training round\n            timeSkipped += secondsRemaining();\n        }\n    }\n\n    function waitTrainers (uint256 _round) external view returns (bool) {\n        if(updatesInRound[_round].length >= maxNumUpdates){\n            return true;\n        }else{\n            return false;\n        }\n    }\n\n    function getmaxNum () public view returns (uint256) {\n        return maxNumUpdates;\n    }\n\n    function getAccountfromUpdate (bytes32 _cid) external view returns(address ){\n        return accountsFromUpdate[_cid];\n    }\n\n    /// @notice Assigns a token count to an update.\n    /// @param _cid The update being rewarded\n    /// @param _numTokens The number of tokens to award; should be based on marginal value contribution\n    function setTokens(bytes32 _cid, uint256 _numTokens)\n        external\n        evaluatorOnly()\n    {\n        require(!tokensAssigned[_cid], \"Update has already been rewarded\");\n        tokens[_cid] = _numTokens;\n        tokensAssigned[_cid] = true;\n    }\n}\n",
  "sourcePath": "/media/hdd1/es_workspace/BCFL_framework_es/contracts/Crowdsource.sol",
  "compiler": {
    "name": "solc",
    "version": "0.8.6+commit.11564f7e.Emscripten.clang"
  },
  "schemaVersion": "3.4.11",
  "updatedAt": "2023-05-23T02:31:16.212Z",
  "networkType": "ethereum",
  "devdoc": {
    "kind": "dev",
    "methods": {
      "allowance(address,address)": {
        "details": "See {IERC20-allowance}."
      },
      "approve(address,uint256)": {
        "details": "See {IERC20-approve}. NOTE: If `amount` is the maximum `uint256`, the allowance is not updated on `transferFrom`. This is semantically equivalent to an infinite approval. Requirements: - `spender` cannot be the zero address."
      },
      "balanceOf(address)": {
        "details": "See {IERC20-balanceOf}."
      },
      "countTokens(address,uint256)": {
        "returns": {
          "count": "Token count of the given address up to and including the given round."
        }
      },
      "countTotalTokens(uint256)": {
        "returns": {
          "count": "Total number of tokens up to and including the given round."
        }
      },
      "currentRound()": {
        "returns": {
          "round": "The index of the current training round."
        }
      },
      "decimals()": {
        "details": "Returns the number of decimals used to get its user representation. For example, if `decimals` equals `2`, a balance of `505` tokens should be displayed to a user as `5.05` (`505 / 10 ** 2`). Tokens usually opt for a value of 18, imitating the relationship between Ether and Wei. This is the value {ERC20} uses, unless this function is overridden; NOTE: This information is only used for _display_ purposes: it in no way affects any of the arithmetic of the contract, including {IERC20-balanceOf} and {IERC20-transfer}."
      },
      "decreaseAllowance(address,uint256)": {
        "details": "Atomically decreases the allowance granted to `spender` by the caller. This is an alternative to {approve} that can be used as a mitigation for problems described in {IERC20-approve}. Emits an {Approval} event indicating the updated allowance. Requirements: - `spender` cannot be the zero address. - `spender` must have allowance for the caller of at least `subtractedValue`."
      },
      "increaseAllowance(address,uint256)": {
        "details": "Atomically increases the allowance granted to `spender` by the caller. This is an alternative to {approve} that can be used as a mitigation for problems described in {IERC20-approve}. Emits an {Approval} event indicating the updated allowance. Requirements: - `spender` cannot be the zero address."
      },
      "madeContribution(address,uint256)": {
        "returns": {
          "_0": "Whether the given address made a contribution in the given round."
        }
      },
      "name()": {
        "details": "Returns the name of the token."
      },
      "secondsRemaining()": {
        "returns": {
          "remaining": "The number of seconds remaining in the current training round."
        }
      },
      "setGenesis(bytes32,uint256,uint256,address[])": {
        "details": "Does not reset the training process! Deploy a new contract instead.",
        "params": {
          "_cid": "The CID of the genesis model",
          "_maxNumUpdates": "Number of updates per round before training round automatically ends. (If 0, always wait the full roundDuration)",
          "_roundDuration": "Number of seconds per training round"
        }
      },
      "setTokens(bytes32,uint256)": {
        "params": {
          "_cid": "The update being rewarded",
          "_numTokens": "The number of tokens to award; should be based on marginal value contribution"
        }
      },
      "symbol()": {
        "details": "Returns the symbol of the token, usually a shorter version of the name."
      },
      "totalSupply()": {
        "details": "See {IERC20-totalSupply}."
      },
      "transfer(address,uint256)": {
        "details": "See {IERC20-transfer}. Requirements: - `to` cannot be the zero address. - the caller must have a balance of at least `amount`."
      },
      "transferFrom(address,address,uint256)": {
        "details": "See {IERC20-transferFrom}. Emits an {Approval} event indicating the updated allowance. This is not required by the EIP. See the note at the beginning of {ERC20}. NOTE: Does not update the allowance if the current allowance is the maximum `uint256`. Requirements: - `from` and `to` cannot be the zero address. - `from` must have a balance of at least `amount`. - the caller must have allowance for ``from``'s tokens of at least `amount`."
      },
      "updates(uint256)": {
        "returns": {
          "_0": "The CID's of updates in the given training round."
        }
      }
    },
    "stateVariables": {
      "accountsFromUpdate": {
        "details": "The Account of model updates "
      },
      "curTrainers": {
        "details": "Current Round's Trainer list"
      },
      "evalflag": {
        "details": "Current Round's Evaluation complete flag"
      },
      "genesisTimestamp": {
        "details": "The timestamp when the genesis model was upload"
      },
      "globalmodel": {
        "details": "Global model for each rounds"
      },
      "maxNumUpdates": {
        "details": "Number of updates before training round automatically ends. (If 0, always wait the full roundDuration)"
      },
      "roundDuration": {
        "details": "Duration of each training round in seconds"
      },
      "score": {
        "details": "Account, Scores by cids "
      },
      "timeSkipped": {
        "details": "Total number of seconds skipped when training rounds finish early"
      },
      "tokens": {
        "details": "The contributivity score for each model update, if evaluated"
      },
      "tokensAssigned": {
        "details": "Whether or not each model update has been evaluated"
      },
      "updateRound": {
        "details": "The round to which each model update belongs"
      },
      "updatesFromAddress": {
        "details": "The IPFS CIDs of model updates made by each address"
      },
      "updatesInRound": {
        "details": "The IPFS CIDs of model updates in each round"
      }
    },
    "version": 1
  },
  "userdoc": {
    "kind": "user",
    "methods": {
      "addModelUpdate(bytes32,uint256)": {
        "notice": "Records a training contribution in the current round."
      },
      "constructor": {
        "notice": "Constructor. The address that deploys the contract is set as the evaluator."
      },
      "evaluator()": {
        "notice": "Address of contract creator, who evaluates updates"
      },
      "genesis()": {
        "notice": "IPFS CID of genesis model"
      },
      "setEvaluator(address)": {
        "notice": "Sets a new evaluator."
      },
      "setGenesis(bytes32,uint256,uint256,address[])": {
        "notice": "Starts training by setting the genesis model. Can only be called once."
      },
      "setTokens(bytes32,uint256)": {
        "notice": "Assigns a token count to an update."
      }
    },
    "version": 1
  }
}