{
  "contractName": "Crowdsource",
  "abi": [
    {
      "constant": true,
      "inputs": [],
      "name": "evaluator",
      "outputs": [
        {
          "name": "",
          "type": "address"
        }
      ],
      "payable": false,
      "stateMutability": "view",
      "type": "function"
    },
    {
      "constant": true,
      "inputs": [],
      "name": "genesis",
      "outputs": [
        {
          "name": "",
          "type": "bytes32"
        }
      ],
      "payable": false,
      "stateMutability": "view",
      "type": "function"
    },
    {
      "inputs": [],
      "payable": false,
      "stateMutability": "nonpayable",
      "type": "constructor"
    },
    {
      "anonymous": false,
      "inputs": [
        {
          "indexed": false,
          "name": "_myString",
          "type": "string"
        },
        {
          "indexed": false,
          "name": "round",
          "type": "uint256"
        }
      ],
      "name": "Log",
      "type": "event"
    },
    {
      "constant": true,
      "inputs": [],
      "name": "currentRound",
      "outputs": [
        {
          "name": "round",
          "type": "uint256"
        }
      ],
      "payable": false,
      "stateMutability": "view",
      "type": "function"
    },
    {
      "constant": true,
      "inputs": [],
      "name": "secondsRemaining",
      "outputs": [
        {
          "name": "remaining",
          "type": "uint256"
        }
      ],
      "payable": false,
      "stateMutability": "view",
      "type": "function"
    },
    {
      "constant": true,
      "inputs": [
        {
          "name": "_round",
          "type": "uint256"
        }
      ],
      "name": "updates",
      "outputs": [
        {
          "name": "",
          "type": "bytes32[]"
        }
      ],
      "payable": false,
      "stateMutability": "view",
      "type": "function"
    },
    {
      "constant": true,
      "inputs": [
        {
          "name": "_address",
          "type": "address"
        },
        {
          "name": "_round",
          "type": "uint256"
        }
      ],
      "name": "countTokens",
      "outputs": [
        {
          "name": "count",
          "type": "uint256"
        }
      ],
      "payable": false,
      "stateMutability": "view",
      "type": "function"
    },
    {
      "constant": true,
      "inputs": [
        {
          "name": "_round",
          "type": "uint256"
        }
      ],
      "name": "countTotalTokens",
      "outputs": [
        {
          "name": "count",
          "type": "uint256"
        }
      ],
      "payable": false,
      "stateMutability": "view",
      "type": "function"
    },
    {
      "constant": true,
      "inputs": [
        {
          "name": "_address",
          "type": "address"
        },
        {
          "name": "_round",
          "type": "uint256"
        }
      ],
      "name": "madeContribution",
      "outputs": [
        {
          "name": "",
          "type": "bool"
        }
      ],
      "payable": false,
      "stateMutability": "view",
      "type": "function"
    },
    {
      "constant": false,
      "inputs": [
        {
          "name": "_newEvaluator",
          "type": "address"
        }
      ],
      "name": "setEvaluator",
      "outputs": [],
      "payable": false,
      "stateMutability": "nonpayable",
      "type": "function"
    },
    {
      "constant": false,
      "inputs": [
        {
          "name": "_cid",
          "type": "bytes32"
        },
        {
          "name": "_roundDuration",
          "type": "uint256"
        },
        {
          "name": "_maxNumUpdates",
          "type": "uint256"
        }
      ],
      "name": "setGenesis",
      "outputs": [],
      "payable": false,
      "stateMutability": "nonpayable",
      "type": "function"
    },
    {
      "constant": false,
      "inputs": [
        {
          "name": "_cid",
          "type": "bytes32"
        },
        {
          "name": "_round",
          "type": "uint256"
        }
      ],
      "name": "addModelUpdate",
      "outputs": [],
      "payable": false,
      "stateMutability": "nonpayable",
      "type": "function"
    },
    {
      "constant": false,
      "inputs": [
        {
          "name": "_cid",
          "type": "bytes32"
        },
        {
          "name": "_numTokens",
          "type": "uint256"
        }
      ],
      "name": "setTokens",
      "outputs": [],
      "payable": false,
      "stateMutability": "nonpayable",
      "type": "function"
    }
  ],
  "bytecode": "0x608060405234801561001057600080fd5b50336000806101000a81548173ffffffffffffffffffffffffffffffffffffffff021916908373ffffffffffffffffffffffffffffffffffffffff160217905550611137806100606000396000f3fe6080604052600436106100b4576000357c01000000000000000000000000000000000000000000000000000000009004806302dbbbac146100b957806311bb27ff1461010a578063189d7dca1461015957806332fd011d146101c857806352c42d5c1461020d5780636f851862146102805780638a19c8bc146102c5578063940ebef7146102f05780639cb93dd11461031b578063a7f0b3de14610372578063b4c2f7271461039d578063ebe328f81461042d575b600080fd5b3480156100c557600080fd5b50610108600480360360208110156100dc57600080fd5b81019080803573ffffffffffffffffffffffffffffffffffffffff16906020019092919050505061047c565b005b34801561011657600080fd5b506101576004803603606081101561012d57600080fd5b81019080803590602001909291908035906020019092919080359060200190929190505050610583565b005b34801561016557600080fd5b506101b26004803603604081101561017c57600080fd5b81019080803573ffffffffffffffffffffffffffffffffffffffff169060200190929190803590602001909291905050506106e5565b6040518082815260200191505060405180910390f35b3480156101d457600080fd5b5061020b600480360360408110156101eb57600080fd5b810190808035906020019092919080359060200190929190505050610806565b005b34801561021957600080fd5b506102666004803603604081101561023057600080fd5b81019080803573ffffffffffffffffffffffffffffffffffffffff16906020019092919080359060200190929190505050610c83565b604051808215151515815260200191505060405180910390f35b34801561028c57600080fd5b506102c3600480360360408110156102a357600080fd5b810190808035906020019092919080359060200190929190505050610d70565b005b3480156102d157600080fd5b506102da610f12565b6040518082815260200191505060405180910390f35b3480156102fc57600080fd5b50610305610f37565b6040518082815260200191505060405180910390f35b34801561032757600080fd5b50610330610f5d565b604051808273ffffffffffffffffffffffffffffffffffffffff1673ffffffffffffffffffffffffffffffffffffffff16815260200191505060405180910390f35b34801561037e57600080fd5b50610387610f82565b6040518082815260200191505060405180910390f35b3480156103a957600080fd5b506103d6600480360360208110156103c057600080fd5b8101908080359060200190929190505050610f88565b6040518080602001828103825283818151815260200191508051906020019060200280838360005b838110156104195780820151818401526020810190506103fe565b505050509050019250505060405180910390f35b34801561043957600080fd5b506104666004803603602081101561045057600080fd5b8101908080359060200190929190505050610ff3565b6040518082815260200191505060405180910390f35b6000809054906101000a900473ffffffffffffffffffffffffffffffffffffffff1673ffffffffffffffffffffffffffffffffffffffff163373ffffffffffffffffffffffffffffffffffffffff16141515610540576040517f08c379a000000000000000000000000000000000000000000000000000000000815260040180806020018281038252601c8152602001807f4e6f74207468652072656769737465726564206576616c7561746f720000000081525060200191505060405180910390fd5b806000806101000a81548173ffffffffffffffffffffffffffffffffffffffff021916908373ffffffffffffffffffffffffffffffffffffffff16021790555050565b6000809054906101000a900473ffffffffffffffffffffffffffffffffffffffff1673ffffffffffffffffffffffffffffffffffffffff163373ffffffffffffffffffffffffffffffffffffffff16141515610647576040517f08c379a000000000000000000000000000000000000000000000000000000000815260040180806020018281038252601c8152602001807f4e6f74207468652072656769737465726564206576616c7561746f720000000081525060200191505060405180910390fd5b60006001026001541415156106c4576040517f08c379a000000000000000000000000000000000000000000000000000000000815260040180806020018281038252601c8152602001807f47656e657369732068617320616c7265616479206265656e207365740000000081525060200191505060405180910390fd5b82600181905550426002819055508160038190555080600481905550505050565b60006060600860008573ffffffffffffffffffffffffffffffffffffffff1673ffffffffffffffffffffffffffffffffffffffff16815260200190815260200160002080548060200260200160405190810160405280929190818152602001828054801561077257602002820191906000526020600020905b81548152602001906001019080831161075e575b5050505050905060008090505b81518110156107fe576000828281518110151561079857fe5b9060200190602002015190508460076000838152602001908152602001600020541115156107f057600a600084848151811015156107d257fe5b90602001906020020151815260200190815260200160002054840193505b50808060010191505061077f565b505092915050565b7fdd970dd9b5bfe707922155b058a407655cb18288b807e2216442bca8ad83d6b561082f610f12565b60405180806020018381526020018281038252600b8152602001807f637572526f756e64203a200000000000000000000000000000000000000000008152506020019250505060405180910390a17fdd970dd9b5bfe707922155b058a407655cb18288b807e2216442bca8ad83d6b5816040518080602001838152602001828103825260118152602001807f696e73657274656420526f756e64203a200000000000000000000000000000008152506020019250505060405180910390a160008111151561098b576040517f08c379a000000000000000000000000000000000000000000000000000000000815260040180806020018281038252602a8152602001807f43616e6e6f742061646420616e2075706461746520666f72207468652067656e81526020017f6573697320726f756e640000000000000000000000000000000000000000000081525060400191505060405180910390fd5b610993610f12565b8110151515610a30576040517f08c379a00000000000000000000000000000000000000000000000000000000081526004018080602001828103825260258152602001807f43616e6e6f742061646420616e2075706461746520666f72206120706173742081526020017f726f756e6400000000000000000000000000000000000000000000000000000081525060400191505060405180910390fd5b610a38610f12565b8111151515610ad5576040517f08c379a00000000000000000000000000000000000000000000000000000000081526004018080602001828103825260278152602001807f43616e6e6f742061646420616e2075706461746520666f72206120667574757281526020017f6520726f756e640000000000000000000000000000000000000000000000000081525060400191505060405180910390fd5b610adf3382610c83565b151515610b7a576040517f08c379a00000000000000000000000000000000000000000000000000000000081526004018080602001828103825260268152602001807f416c726561647920616464656420616e2075706461746520666f72207468697381526020017f20726f756e64000000000000000000000000000000000000000000000000000081525060400191505060405180910390fd5b60066000828152602001908152602001600020829080600181540180825580915050906001820390600052602060002001600090919290919091505550600860003373ffffffffffffffffffffffffffffffffffffffff1673ffffffffffffffffffffffffffffffffffffffff1681526020019081526020016000208290806001815401808255809150509060018203906000526020600020016000909192909190915055508060076000848152602001908152602001600020819055506000600454118015610c625750600454600660008381526020019081526020016000208054905010155b15610c7f57610c6f610f37565b6005600082825401925050819055505b5050565b600080600090505b600860008573ffffffffffffffffffffffffffffffffffffffff1673ffffffffffffffffffffffffffffffffffffffff16815260200190815260200160002080549050811015610d64576000600860008673ffffffffffffffffffffffffffffffffffffffff1673ffffffffffffffffffffffffffffffffffffffff16815260200190815260200160002082815481101515610d2357fe5b906000526020600020015490508360076000838152602001908152602001600020541415610d5657600192505050610d6a565b508080600101915050610c8b565b50600090505b92915050565b6000809054906101000a900473ffffffffffffffffffffffffffffffffffffffff1673ffffffffffffffffffffffffffffffffffffffff163373ffffffffffffffffffffffffffffffffffffffff16141515610e34576040517f08c379a000000000000000000000000000000000000000000000000000000000815260040180806020018281038252601c8152602001807f4e6f74207468652072656769737465726564206576616c7561746f720000000081525060200191505060405180910390fd5b6009600083815260200190815260200160002060009054906101000a900460ff16151515610eca576040517f08c379a00000000000000000000000000000000000000000000000000000000081526004018080602001828103825260208152602001807f5570646174652068617320616c7265616479206265656e20726577617264656481525060200191505060405180910390fd5b80600a60008481526020019081526020016000208190555060016009600084815260200190815260200160002060006101000a81548160ff0219169083151502179055505050565b600080600254426005540103905060035481811515610f2d57fe5b0460010191505090565b600080600254426005540103905060035481811515610f5257fe5b066003540391505090565b6000809054906101000a900473ffffffffffffffffffffffffffffffffffffffff1681565b60015481565b606060066000838152602001908152602001600020805480602002602001604051908101604052809291908181526020018280548015610fe757602002820191906000526020600020905b815481526020019060010190808311610fd3575b50505050509050919050565b600080600190505b611003610f12565b811115156111055760606006600083815260200190815260200160002080548060200260200160405190810160405280929190818152602001828054801561106a57602002820191906000526020600020905b815481526020019060010190808311611056575b5050505050905060008090505b81518110156110f6576000828281518110151561109057fe5b9060200190602002015190508560076000838152602001908152602001600020541115156110e857600a600084848151811015156110ca57fe5b90602001906020020151815260200190815260200160002054850194505b508080600101915050611077565b50508080600101915050610ffb565b5091905056fea165627a7a72305820f8372b193a54fdc91963f73fc9888e4e6dcc618949dd43c26a1b719141cb600a0029",
  "source": "pragma solidity >=0.4.21 <0.7.0;\n\n/// @title Records contributions made to a Crowdsourcing Federated Learning process\n/// @author Harry Cai\ncontract Crowdsource {\n    /// @notice Address of contract creator, who evaluates updates\n    address public evaluator;\n\n    /// @notice IPFS CID of genesis model\n    bytes32 public genesis;\n\n    /// @dev The timestamp when the genesis model was upload\n    uint256 internal genesisTimestamp;\n\n    /// @dev Duration of each training round in seconds\n    uint256 internal roundDuration;\n\n    /// @dev Number of updates before training round automatically ends. (If 0, always wait the full roundDuration)\n    uint256 internal maxNumUpdates;\n\n    /// @dev Total number of seconds skipped when training rounds finish early\n    uint256 internal timeSkipped;\n\n    /// @dev The IPFS CIDs of model updates in each round\n    mapping(uint256 => bytes32[]) internal updatesInRound;\n\n    /// @dev The round to which each model update belongs\n    mapping(bytes32 => uint256) internal updateRound;\n\n    /// @dev The IPFS CIDs of model updates made by each address\n    mapping(address => bytes32[]) internal updatesFromAddress;\n\n    /// @dev Whether or not each model update has been evaluated\n    mapping(bytes32 => bool) internal tokensAssigned;\n\n    /// @dev The contributivity score for each model update, if evaluated\n    mapping(bytes32 => uint256) internal tokens;\n\n    event Log(string _myString , uint256 round);\n\n    /// @notice Constructor. The address that deploys the contract is set as the evaluator.\n    constructor() public {\n        evaluator = msg.sender;\n    }\n\n    modifier evaluatorOnly() {\n        require(msg.sender == evaluator, \"Not the registered evaluator\");\n        _;\n    }\n\n    /// @return round The index of the current training round.\n    function currentRound() public view returns (uint256 round) {\n        uint256 timeElapsed = timeSkipped + now - genesisTimestamp;\n        round = 1 + (timeElapsed / roundDuration);\n    }\n\n    /// @return remaining The number of seconds remaining in the current training round.\n    function secondsRemaining() public view returns (uint256 remaining) {\n        uint256 timeElapsed = timeSkipped + now - genesisTimestamp;\n        remaining = roundDuration - (timeElapsed % roundDuration);\n    }\n\n    /// @return The CID's of updates in the given training round.\n    function updates(uint256 _round) external view returns (bytes32[] memory) {\n        return updatesInRound[_round];\n    }\n\n    /// @return count Token count of the given address up to and including the given round.\n    function countTokens(address _address, uint256 _round)\n        external\n        view\n        returns (uint256 count)\n    {\n        bytes32[] memory updates = updatesFromAddress[_address];\n        for (uint256 i = 0; i < updates.length; i++) {\n            bytes32 update = updates[i];\n            if (updateRound[update] <= _round) {\n                count += tokens[updates[i]];\n            }\n        }\n    }\n\n    /// @return count Total number of tokens up to and including the given round.\n    function countTotalTokens(uint256 _round) external view returns (uint256 count) {\n        for (uint256 i = 1; i <= currentRound(); i++) {\n            bytes32[] memory updates = updatesInRound[i];\n            for (uint256 j = 0; j < updates.length; j++) {\n                bytes32 update = updates[j];\n                if (updateRound[update] <= _round){\n                    count += tokens[updates[j]];\n                }\n            }\n        }\n    }\n\n    /// @return Whether the given address made a contribution in the given round.\n    function madeContribution(address _address, uint256 _round)\n        public\n        view\n        returns (bool)\n    {\n        for (uint256 i = 0; i < updatesFromAddress[_address].length; i++) {\n            bytes32 update = updatesFromAddress[_address][i];\n            if (updateRound[update] == _round) {\n                return true;\n            }\n        }\n        return false;\n    }\n\n    /// @notice Sets a new evaluator.\n    function setEvaluator(address _newEvaluator) external evaluatorOnly() {\n        evaluator = _newEvaluator;\n    }\n\n    /// @notice Starts training by setting the genesis model. Can only be called once.\n    /// @param _cid The CID of the genesis model\n    /// @param _roundDuration Number of seconds per training round\n    /// @param _maxNumUpdates Number of updates per round before training round automatically ends. (If 0, always wait the full roundDuration)\n    /// @dev Does not reset the training process! Deploy a new contract instead.\n    function setGenesis(\n        bytes32 _cid,\n        uint256 _roundDuration,\n        uint256 _maxNumUpdates\n    ) external evaluatorOnly() {\n        require(genesis == 0, \"Genesis has already been set\");\n        genesis = _cid;\n        genesisTimestamp = now;\n        roundDuration = _roundDuration;\n        maxNumUpdates = _maxNumUpdates;\n    }\n\n    /// @notice Records a training contribution in the current round.\n    function addModelUpdate(bytes32 _cid, uint256 _round) external {\n        emit Log(\"curRound : \", currentRound());\n        emit Log(\"inserted Round : \", _round);\n        require(_round > 0, \"Cannot add an update for the genesis round\");\n        require(\n            _round >= currentRound(),\n            \"Cannot add an update for a past round\"\n        );\n        require(\n            _round <= currentRound(),\n            \"Cannot add an update for a future round\"\n        );\n        require(\n            !madeContribution(msg.sender, _round),\n            \"Already added an update for this round\"\n        );\n\n        updatesInRound[_round].push(_cid);\n        updatesFromAddress[msg.sender].push(_cid);\n        updateRound[_cid] = _round;\n\n        if (\n            maxNumUpdates > 0 && updatesInRound[_round].length >= maxNumUpdates\n        ) {\n            // Skip to the end of training round\n            timeSkipped += secondsRemaining();\n        }\n    }\n\n    /// @notice Assigns a token count to an update.\n    /// @param _cid The update being rewarded\n    /// @param _numTokens The number of tokens to award; should be based on marginal value contribution\n    function setTokens(bytes32 _cid, uint256 _numTokens)\n        external\n        evaluatorOnly()\n    {\n        require(!tokensAssigned[_cid], \"Update has already been rewarded\");\n        tokens[_cid] = _numTokens;\n        tokensAssigned[_cid] = true;\n    }\n}\n",
  "sourcePath": "/home/dy/2cp_new/contracts/Crowdsource.sol",
  "compiler": {
    "name": "solc",
    "version": "0.5.1+commit.c8a2cb62.Emscripten.clang"
  },
  "schemaVersion": "3.4.8",
  "updatedAt": "2022-10-07T00:45:04.179Z",
  "networkType": "ethereum",
  "devdoc": {
    "author": "Harry Cai",
    "methods": {
      "countTokens(address,uint256)": {
        "return": "count Token count of the given address up to and including the given round."
      },
      "countTotalTokens(uint256)": {
        "return": "count Total number of tokens up to and including the given round."
      },
      "currentRound()": {
        "return": "round The index of the current training round."
      },
      "madeContribution(address,uint256)": {
        "return": "Whether the given address made a contribution in the given round."
      },
      "secondsRemaining()": {
        "return": "remaining The number of seconds remaining in the current training round."
      },
      "setGenesis(bytes32,uint256,uint256)": {
        "details": "Does not reset the training process! Deploy a new contract instead.",
        "params": {
          "_cid": "The CID of the genesis model",
          "_maxNumUpdates": "Number of updates per round before training round automatically ends. (If 0, always wait the full roundDuration)",
          "_roundDuration": "Number of seconds per training round"
        }
      },
      "setTokens(bytes32,uint256)": {
        "params": {
          "_cid": "The update being rewarded",
          "_numTokens": "The number of tokens to award; should be based on marginal value contribution"
        }
      },
      "updates(uint256)": {
        "return": "The CID's of updates in the given training round."
      }
    },
    "title": "Records contributions made to a Crowdsourcing Federated Learning process"
  },
  "userdoc": {
    "methods": {
      "addModelUpdate(bytes32,uint256)": {
        "notice": "Records a training contribution in the current round."
      },
      "constructor": "Constructor. The address that deploys the contract is set as the evaluator.",
      "setEvaluator(address)": {
        "notice": "Sets a new evaluator."
      },
      "setGenesis(bytes32,uint256,uint256)": {
        "notice": "Starts training by setting the genesis model. Can only be called once."
      },
      "setTokens(bytes32,uint256)": {
        "notice": "Assigns a token count to an update."
      }
    }
  }
}