{
  "contractName": "Crowdsource",
  "abi": [
    {
      "inputs": [],
      "stateMutability": "nonpayable",
      "type": "constructor"
    },
    {
      "anonymous": false,
      "inputs": [
        {
          "indexed": false,
          "internalType": "string",
          "name": "_myString",
          "type": "string"
        },
        {
          "indexed": false,
          "internalType": "uint256",
          "name": "round",
          "type": "uint256"
        }
      ],
      "name": "Log",
      "type": "event"
    },
    {
      "inputs": [],
      "name": "evaluator",
      "outputs": [
        {
          "internalType": "address",
          "name": "",
          "type": "address"
        }
      ],
      "stateMutability": "view",
      "type": "function",
      "constant": true
    },
    {
      "inputs": [],
      "name": "genesis",
      "outputs": [
        {
          "internalType": "bytes32",
          "name": "",
          "type": "bytes32"
        }
      ],
      "stateMutability": "view",
      "type": "function",
      "constant": true
    },
    {
      "inputs": [
        {
          "internalType": "bytes32",
          "name": "_cid",
          "type": "bytes32"
        },
        {
          "internalType": "uint256",
          "name": "_round",
          "type": "uint256"
        }
      ],
      "name": "saveGlobalmodel",
      "outputs": [],
      "stateMutability": "nonpayable",
      "type": "function"
    },
    {
      "inputs": [
        {
          "internalType": "uint256",
          "name": "_round",
          "type": "uint256"
        }
      ],
      "name": "getGlobalmodel",
      "outputs": [
        {
          "internalType": "bytes32",
          "name": "",
          "type": "bytes32"
        }
      ],
      "stateMutability": "view",
      "type": "function",
      "constant": true
    },
    {
      "inputs": [
        {
          "internalType": "bytes32",
          "name": "_cid",
          "type": "bytes32"
        },
        {
          "internalType": "address",
          "name": "_address",
          "type": "address"
        },
        {
          "internalType": "int256",
          "name": "_score",
          "type": "int256"
        }
      ],
      "name": "saveScores",
      "outputs": [],
      "stateMutability": "nonpayable",
      "type": "function"
    },
    {
      "inputs": [
        {
          "internalType": "bytes32",
          "name": "_cid",
          "type": "bytes32"
        }
      ],
      "name": "getScores",
      "outputs": [
        {
          "components": [
            {
              "internalType": "address",
              "name": "account",
              "type": "address"
            },
            {
              "internalType": "int256",
              "name": "score",
              "type": "int256"
            }
          ],
          "internalType": "struct Crowdsource.ScoreandAccount",
          "name": "",
          "type": "tuple"
        }
      ],
      "stateMutability": "view",
      "type": "function",
      "constant": true
    },
    {
      "inputs": [
        {
          "internalType": "uint256",
          "name": "_round",
          "type": "uint256"
        }
      ],
      "name": "completeEval",
      "outputs": [],
      "stateMutability": "nonpayable",
      "type": "function"
    },
    {
      "inputs": [
        {
          "internalType": "uint256",
          "name": "_round",
          "type": "uint256"
        }
      ],
      "name": "getCurTrainers",
      "outputs": [
        {
          "internalType": "address[]",
          "name": "trainers",
          "type": "address[]"
        }
      ],
      "stateMutability": "view",
      "type": "function",
      "constant": true
    },
    {
      "inputs": [
        {
          "internalType": "address",
          "name": "_address",
          "type": "address"
        },
        {
          "internalType": "uint256",
          "name": "_round",
          "type": "uint256"
        }
      ],
      "name": "isTrainer",
      "outputs": [
        {
          "internalType": "bool",
          "name": "trainCheckFlag",
          "type": "bool"
        }
      ],
      "stateMutability": "view",
      "type": "function",
      "constant": true
    },
    {
      "inputs": [
        {
          "internalType": "address[]",
          "name": "_address",
          "type": "address[]"
        },
        {
          "internalType": "uint256",
          "name": "_round",
          "type": "uint256"
        }
      ],
      "name": "setCurTrainer",
      "outputs": [],
      "stateMutability": "nonpayable",
      "type": "function"
    },
    {
      "inputs": [
        {
          "internalType": "uint256",
          "name": "_maxNum",
          "type": "uint256"
        }
      ],
      "name": "changeMaxNumUpdates",
      "outputs": [],
      "stateMutability": "nonpayable",
      "type": "function"
    },
    {
      "inputs": [],
      "name": "currentRound",
      "outputs": [
        {
          "internalType": "uint256",
          "name": "round",
          "type": "uint256"
        }
      ],
      "stateMutability": "view",
      "type": "function",
      "constant": true
    },
    {
      "inputs": [],
      "name": "secondsRemaining",
      "outputs": [
        {
          "internalType": "uint256",
          "name": "remaining",
          "type": "uint256"
        }
      ],
      "stateMutability": "view",
      "type": "function",
      "constant": true
    },
    {
      "inputs": [
        {
          "internalType": "uint256",
          "name": "_round",
          "type": "uint256"
        }
      ],
      "name": "updates",
      "outputs": [
        {
          "internalType": "bytes32[]",
          "name": "",
          "type": "bytes32[]"
        }
      ],
      "stateMutability": "view",
      "type": "function",
      "constant": true
    },
    {
      "inputs": [
        {
          "internalType": "address",
          "name": "_address",
          "type": "address"
        },
        {
          "internalType": "uint256",
          "name": "_round",
          "type": "uint256"
        }
      ],
      "name": "countTokens",
      "outputs": [
        {
          "internalType": "uint256",
          "name": "count",
          "type": "uint256"
        }
      ],
      "stateMutability": "view",
      "type": "function",
      "constant": true
    },
    {
      "inputs": [
        {
          "internalType": "uint256",
          "name": "_round",
          "type": "uint256"
        }
      ],
      "name": "countTotalTokens",
      "outputs": [
        {
          "internalType": "uint256",
          "name": "count",
          "type": "uint256"
        }
      ],
      "stateMutability": "view",
      "type": "function",
      "constant": true
    },
    {
      "inputs": [
        {
          "internalType": "address",
          "name": "_address",
          "type": "address"
        },
        {
          "internalType": "uint256",
          "name": "_round",
          "type": "uint256"
        }
      ],
      "name": "madeContribution",
      "outputs": [
        {
          "internalType": "bool",
          "name": "",
          "type": "bool"
        }
      ],
      "stateMutability": "view",
      "type": "function",
      "constant": true
    },
    {
      "inputs": [
        {
          "internalType": "address",
          "name": "_newEvaluator",
          "type": "address"
        }
      ],
      "name": "setEvaluator",
      "outputs": [],
      "stateMutability": "nonpayable",
      "type": "function"
    },
    {
      "inputs": [
        {
          "internalType": "bytes32",
          "name": "_cid",
          "type": "bytes32"
        },
        {
          "internalType": "uint256",
          "name": "_roundDuration",
          "type": "uint256"
        },
        {
          "internalType": "uint256",
          "name": "_maxNumUpdates",
          "type": "uint256"
        },
        {
          "internalType": "address[]",
          "name": "accounts",
          "type": "address[]"
        }
      ],
      "name": "setGenesis",
      "outputs": [],
      "stateMutability": "nonpayable",
      "type": "function"
    },
    {
      "inputs": [
        {
          "internalType": "bytes32",
          "name": "_cid",
          "type": "bytes32"
        },
        {
          "internalType": "uint256",
          "name": "_round",
          "type": "uint256"
        }
      ],
      "name": "addModelUpdate",
      "outputs": [],
      "stateMutability": "nonpayable",
      "type": "function"
    },
    {
      "inputs": [
        {
          "internalType": "uint256",
          "name": "_round",
          "type": "uint256"
        }
      ],
      "name": "skipRound",
      "outputs": [],
      "stateMutability": "nonpayable",
      "type": "function"
    },
    {
      "inputs": [
        {
          "internalType": "uint256",
          "name": "_round",
          "type": "uint256"
        }
      ],
      "name": "waitTrainers",
      "outputs": [
        {
          "internalType": "bool",
          "name": "",
          "type": "bool"
        }
      ],
      "stateMutability": "view",
      "type": "function",
      "constant": true
    },
    {
      "inputs": [],
      "name": "getmaxNum",
      "outputs": [
        {
          "internalType": "uint256",
          "name": "",
          "type": "uint256"
        }
      ],
      "stateMutability": "view",
      "type": "function",
      "constant": true
    },
    {
      "inputs": [
        {
          "internalType": "bytes32",
          "name": "_cid",
          "type": "bytes32"
        }
      ],
      "name": "getAccountfromUpdate",
      "outputs": [
        {
          "internalType": "address",
          "name": "",
          "type": "address"
        }
      ],
      "stateMutability": "view",
      "type": "function",
      "constant": true
    },
    {
      "inputs": [
        {
          "internalType": "bytes32",
          "name": "_cid",
          "type": "bytes32"
        },
        {
          "internalType": "uint256",
          "name": "_numTokens",
          "type": "uint256"
        }
      ],
      "name": "setTokens",
      "outputs": [],
      "stateMutability": "nonpayable",
      "type": "function"
    }
  ],
  "bytecode": "0x608060405234801561001057600080fd5b50326000806101000a81548173ffffffffffffffffffffffffffffffffffffffff021916908373ffffffffffffffffffffffffffffffffffffffff1602179055506126da806100606000396000f3fe608060405234801561001057600080fd5b50600436106101735760003560e01c80639cb93dd1116100de578063c3f5373111610097578063ebe328f811610071578063ebe328f814610458578063f451145d14610488578063f490f00e146104a6578063fbaa430d146104d657610173565b8063c3f53731146103dc578063cfd1e42d1461040c578063eaec0b191461043c57610173565b80639cb93dd11461031c578063a7f0b3de1461033a578063b4c2f72714610358578063b4ccfd0b14610388578063b9ee7dee146103a4578063be9edc48146103c057610173565b806366b80b7b1161013057806366b80b7b1461025c5780636f85186214610278578063712a2cd8146102945780637552538c146102b05780638a19c8bc146102e0578063940ebef7146102fe57610173565b806302dbbbac146101785780630879416a14610194578063189d7dca146101b057806332fd011d146101e0578063465286dd146101fc57806352c42d5c1461022c575b600080fd5b610192600480360381019061018d9190611953565b610506565b005b6101ae60048036038101906101a99190611b64565b6105d7565b005b6101ca60048036038101906101c59190611980565b6106fb565b6040516101d7919061207f565b60405180910390f35b6101fa60048036038101906101f59190611a9c565b61082b565b005b61021660048036038101906102119190611980565b610acf565b6040516102239190611ed2565b60405180910390f35b61024660048036038101906102419190611980565b610b9d565b6040516102539190611ed2565b60405180910390f35b61027660048036038101906102719190611a9c565b610c95565b005b610292600480360381019061028d9190611a9c565b610d3f565b005b6102ae60048036038101906102a99190611adc565b610e76565b005b6102ca60048036038101906102c59190611b64565b610fba565b6040516102d79190611ed2565b60405180910390f35b6102e8610fee565b6040516102f5919061207f565b60405180910390f35b61030661102e565b604051610313919061207f565b60405180910390f35b61032461106f565b6040516103319190611e73565b60405180910390f35b610342611093565b60405161034f9190611eed565b60405180910390f35b610372600480360381019061036d9190611b64565b611099565b60405161037f9190611eb0565b60405180910390f35b6103a2600480360381019061039d9190611b64565b611104565b005b6103be60048036038101906103b99190611b64565b611192565b005b6103da60048036038101906103d591906119c0565b61122a565b005b6103f660048036038101906103f19190611b64565b61136a565b6040516104039190611eed565b60405180910390f35b61042660048036038101906104219190611b64565b611387565b6040516104339190611e8e565b60405180910390f35b61045660048036038101906104519190611a49565b611428565b005b610472600480360381019061046d9190611b64565b61154d565b60405161047f919061207f565b60405180910390f35b610490611679565b60405161049d919061207f565b60405180910390f35b6104c060048036038101906104bb9190611a1c565b611683565b6040516104cd9190611e73565b60405180910390f35b6104f060048036038101906104eb9190611a1c565b6116c0565b6040516104fd9190612064565b60405180910390f35b60008054906101000a900473ffffffffffffffffffffffffffffffffffffffff1673ffffffffffffffffffffffffffffffffffffffff163273ffffffffffffffffffffffffffffffffffffffff1614610594576040517f08c379a000000000000000000000000000000000000000000000000000000000815260040161058b90612044565b60405180910390fd5b806000806101000a81548173ffffffffffffffffffffffffffffffffffffffff021916908373ffffffffffffffffffffffffffffffffffffffff16021790555050565b60008054906101000a900473ffffffffffffffffffffffffffffffffffffffff1673ffffffffffffffffffffffffffffffffffffffff163273ffffffffffffffffffffffffffffffffffffffff1614610665576040517f08c379a000000000000000000000000000000000000000000000000000000000815260040161065c90612044565b60405180910390fd5b60001515600d600083815260200190815260200160002060009054906101000a900460ff161515146106cc576040517f08c379a00000000000000000000000000000000000000000000000000000000081526004016106c390611f28565b60405180910390fd5b6001600d600083815260200190815260200160002060006101000a81548160ff02191690831515021790555050565b600080600860008573ffffffffffffffffffffffffffffffffffffffff1673ffffffffffffffffffffffffffffffffffffffff16815260200190815260200160002080548060200260200160405190810160405280929190818152602001828054801561078757602002820191906000526020600020905b815481526020019060010190808311610773575b5050505050905060005b81518110156108235760008282815181106107af576107ae61238e565b5b602002602001015190508460076000838152602001908152602001600020541161080f57600b60008484815181106107ea576107e961238e565b5b60200260200101518152602001908152602001600020548461080c919061216e565b93505b50808061081b906122b6565b915050610791565b505092915050565b7fdd970dd9b5bfe707922155b058a407655cb18288b807e2216442bca8ad83d6b5610854610fee565b6040516108619190611fb6565b60405180910390a17fdd970dd9b5bfe707922155b058a407655cb18288b807e2216442bca8ad83d6b5816040516108989190611f68565b60405180910390a1600081116108e3576040517f08c379a00000000000000000000000000000000000000000000000000000000081526004016108da90612024565b60405180910390fd5b6108eb610fee565b81101561092d576040517f08c379a000000000000000000000000000000000000000000000000000000000815260040161092490611fe4565b60405180910390fd5b610935610fee565b811115610977576040517f08c379a000000000000000000000000000000000000000000000000000000000815260040161096e90611f48565b60405180910390fd5b6109813282610b9d565b156109c1576040517f08c379a00000000000000000000000000000000000000000000000000000000081526004016109b890612004565b60405180910390fd5b60066000828152602001908152602001600020829080600181540180825580915050600190039060005260206000200160009091909190915055600860003273ffffffffffffffffffffffffffffffffffffffff1673ffffffffffffffffffffffffffffffffffffffff168152602001908152602001600020829080600181540180825580915050600190039060005260206000200160009091909190915055326009600084815260200190815260200160002060006101000a81548173ffffffffffffffffffffffffffffffffffffffff021916908373ffffffffffffffffffffffffffffffffffffffff1602179055508060076000848152602001908152602001600020819055505050565b6000805b600c600084815260200190815260200160002080549050811015610b96578373ffffffffffffffffffffffffffffffffffffffff16600c60008581526020019081526020016000208281548110610b2d57610b2c61238e565b5b9060005260206000200160009054906101000a900473ffffffffffffffffffffffffffffffffffffffff1673ffffffffffffffffffffffffffffffffffffffff161415610b7d5760019150610b82565b610b83565b5b8080610b8e906122b6565b915050610ad3565b5092915050565b600080600090505b600860008573ffffffffffffffffffffffffffffffffffffffff1673ffffffffffffffffffffffffffffffffffffffff16815260200190815260200160002080549050811015610c89576000600860008673ffffffffffffffffffffffffffffffffffffffff1673ffffffffffffffffffffffffffffffffffffffff1681526020019081526020016000208281548110610c4257610c4161238e565b5b906000526020600020015490508360076000838152602001908152602001600020541415610c7557600192505050610c8f565b508080610c81906122b6565b915050610ba5565b50600090505b92915050565b60008054906101000a900473ffffffffffffffffffffffffffffffffffffffff1673ffffffffffffffffffffffffffffffffffffffff163273ffffffffffffffffffffffffffffffffffffffff1614610d23576040517f08c379a0000000000000000000000000000000000000000000000000000000008152600401610d1a90612044565b60405180910390fd5b81600e6000838152602001908152602001600020819055505050565b60008054906101000a900473ffffffffffffffffffffffffffffffffffffffff1673ffffffffffffffffffffffffffffffffffffffff163273ffffffffffffffffffffffffffffffffffffffff1614610dcd576040517f08c379a0000000000000000000000000000000000000000000000000000000008152600401610dc490612044565b60405180910390fd5b600a600083815260200190815260200160002060009054906101000a900460ff1615610e2e576040517f08c379a0000000000000000000000000000000000000000000000000000000008152600401610e2590611f96565b60405180910390fd5b80600b6000848152602001908152602001600020819055506001600a600084815260200190815260200160002060006101000a81548160ff0219169083151502179055505050565b60008054906101000a900473ffffffffffffffffffffffffffffffffffffffff1673ffffffffffffffffffffffffffffffffffffffff163273ffffffffffffffffffffffffffffffffffffffff1614610f04576040517f08c379a0000000000000000000000000000000000000000000000000000000008152600401610efb90612044565b60405180910390fd5b6000801b60015414610f4b576040517f08c379a0000000000000000000000000000000000000000000000000000000008152600401610f4290611f08565b60405180910390fd5b84600181905550426002819055508360038190555082600481905550610fb3828280806020026020016040519081016040528093929190818152602001838360200280828437600081840152601f19601f82011690508083019250505050505050600161122a565b5050505050565b6000600454600660008481526020019081526020016000208054905010610fe45760019050610fe9565b600090505b919050565b60008060025442600554611002919061216e565b61100c91906121f5565b90506003548161101c91906121c4565b6001611028919061216e565b91505090565b60008060025442600554611042919061216e565b61104c91906121f5565b90506003548161105c91906122ff565b60035461106991906121f5565b91505090565b60008054906101000a900473ffffffffffffffffffffffffffffffffffffffff1681565b60015481565b6060600660008381526020019081526020016000208054806020026020016040519081016040528092919081815260200182805480156110f857602002820191906000526020600020905b8154815260200190600101908083116110e4575b50505050509050919050565b600060045411801561112e5750600454600660008381526020019081526020016000208054905010155b8015611169575060011515600d600083815260200190815260200160002060009054906101000a900460ff16151514806111685750600181145b5b1561118f5761117661102e565b60056000828254611187919061216e565b925050819055505b50565b60008054906101000a900473ffffffffffffffffffffffffffffffffffffffff1673ffffffffffffffffffffffffffffffffffffffff163273ffffffffffffffffffffffffffffffffffffffff1614611220576040517f08c379a000000000000000000000000000000000000000000000000000000000815260040161121790612044565b60405180910390fd5b8060048190555050565b60008054906101000a900473ffffffffffffffffffffffffffffffffffffffff1673ffffffffffffffffffffffffffffffffffffffff163273ffffffffffffffffffffffffffffffffffffffff16146112b8576040517f08c379a00000000000000000000000000000000000000000000000000000000081526004016112af90612044565b60405180910390fd5b60005b825181101561136557600c60008381526020019081526020016000208382815181106112ea576112e961238e565b5b60200260200101519080600181540180825580915050600190039060005260206000200160009091909190916101000a81548173ffffffffffffffffffffffffffffffffffffffff021916908373ffffffffffffffffffffffffffffffffffffffff160217905550808061135d906122b6565b9150506112bb565b505050565b6000600e6000838152602001908152602001600020549050919050565b6060600c600083815260200190815260200160002080548060200260200160405190810160405280929190818152602001828054801561141c57602002820191906000526020600020905b8160009054906101000a900473ffffffffffffffffffffffffffffffffffffffff1673ffffffffffffffffffffffffffffffffffffffff16815260200190600101908083116113d2575b50505050509050919050565b60008054906101000a900473ffffffffffffffffffffffffffffffffffffffff1673ffffffffffffffffffffffffffffffffffffffff163273ffffffffffffffffffffffffffffffffffffffff16146114b6576040517f08c379a00000000000000000000000000000000000000000000000000000000081526004016114ad90612044565b60405180910390fd5b60405180604001604052808373ffffffffffffffffffffffffffffffffffffffff16815260200182815250600f600085815260200190815260200160002060008201518160000160006101000a81548173ffffffffffffffffffffffffffffffffffffffff021916908373ffffffffffffffffffffffffffffffffffffffff16021790555060208201518160010155905050505050565b600080600190505b61155d610fee565b8111611673576000600660008381526020019081526020016000208054806020026020016040519081016040528092919081815260200182805480156115c257602002820191906000526020600020905b8154815260200190600101908083116115ae575b5050505050905060005b815181101561165e5760008282815181106115ea576115e961238e565b5b602002602001015190508560076000838152602001908152602001600020541161164a57600b60008484815181106116255761162461238e565b5b602002602001015181526020019081526020016000205485611647919061216e565b94505b508080611656906122b6565b9150506115cc565b5050808061166b906122b6565b915050611555565b50919050565b6000600454905090565b60006009600083815260200190815260200160002060009054906101000a900473ffffffffffffffffffffffffffffffffffffffff169050919050565b6116c86117db565b60008054906101000a900473ffffffffffffffffffffffffffffffffffffffff1673ffffffffffffffffffffffffffffffffffffffff163273ffffffffffffffffffffffffffffffffffffffff1614611756576040517f08c379a000000000000000000000000000000000000000000000000000000000815260040161174d90612044565b60405180910390fd5b600f60008381526020019081526020016000206040518060400160405290816000820160009054906101000a900473ffffffffffffffffffffffffffffffffffffffff1673ffffffffffffffffffffffffffffffffffffffff1673ffffffffffffffffffffffffffffffffffffffff1681526020016001820154815250509050919050565b6040518060400160405280600073ffffffffffffffffffffffffffffffffffffffff168152602001600081525090565b600061181e611819846120bf565b61209a565b90508083825260208201905082856020860282011115611841576118406123f6565b5b60005b858110156118715781611857888261187b565b845260208401935060208301925050600181019050611844565b5050509392505050565b60008135905061188a81612648565b92915050565b60008083601f8401126118a6576118a56123f1565b5b8235905067ffffffffffffffff8111156118c3576118c26123ec565b5b6020830191508360208202830111156118df576118de6123f6565b5b9250929050565b600082601f8301126118fb576118fa6123f1565b5b813561190b84826020860161180b565b91505092915050565b6000813590506119238161265f565b92915050565b60008135905061193881612676565b92915050565b60008135905061194d8161268d565b92915050565b60006020828403121561196957611968612400565b5b60006119778482850161187b565b91505092915050565b6000806040838503121561199757611996612400565b5b60006119a58582860161187b565b92505060206119b68582860161193e565b9150509250929050565b600080604083850312156119d7576119d6612400565b5b600083013567ffffffffffffffff8111156119f5576119f46123fb565b5b611a01858286016118e6565b9250506020611a128582860161193e565b9150509250929050565b600060208284031215611a3257611a31612400565b5b6000611a4084828501611914565b91505092915050565b600080600060608486031215611a6257611a61612400565b5b6000611a7086828701611914565b9350506020611a818682870161187b565b9250506040611a9286828701611929565b9150509250925092565b60008060408385031215611ab357611ab2612400565b5b6000611ac185828601611914565b9250506020611ad28582860161193e565b9150509250929050565b600080600080600060808688031215611af857611af7612400565b5b6000611b0688828901611914565b9550506020611b178882890161193e565b9450506040611b288882890161193e565b935050606086013567ffffffffffffffff811115611b4957611b486123fb565b5b611b5588828901611890565b92509250509295509295909350565b600060208284031215611b7a57611b79612400565b5b6000611b888482850161193e565b91505092915050565b6000611b9d8383611bc1565b60208301905092915050565b6000611bb58383611caa565b60208301905092915050565b611bca81612229565b82525050565b611bd981612229565b82525050565b6000611bea8261210b565b611bf4818561213b565b9350611bff836120eb565b8060005b83811015611c30578151611c178882611b91565b9750611c2283612121565b925050600181019050611c03565b5085935050505092915050565b6000611c4882612116565b611c52818561214c565b9350611c5d836120fb565b8060005b83811015611c8e578151611c758882611ba9565b9750611c808361212e565b925050600181019050611c61565b5085935050505092915050565b611ca48161223b565b82525050565b611cb381612247565b82525050565b611cc281612247565b82525050565b611cd181612251565b82525050565b6000611ce4601c8361215d565b9150611cef82612416565b602082019050919050565b6000611d07601d8361215d565b9150611d128261243f565b602082019050919050565b6000611d2a60278361215d565b9150611d3582612468565b604082019050919050565b6000611d4d60118361215d565b9150611d58826124b7565b602082019050919050565b6000611d7060208361215d565b9150611d7b826124e0565b602082019050919050565b6000611d93600b8361215d565b9150611d9e82612509565b602082019050919050565b6000611db660258361215d565b9150611dc182612532565b604082019050919050565b6000611dd960268361215d565b9150611de482612581565b604082019050919050565b6000611dfc602a8361215d565b9150611e07826125d0565b604082019050919050565b6000611e1f601c8361215d565b9150611e2a8261261f565b602082019050919050565b604082016000820151611e4b6000850182611bc1565b506020820151611e5e6020850182611cc8565b50505050565b611e6d8161227b565b82525050565b6000602082019050611e886000830184611bd0565b92915050565b60006020820190508181036000830152611ea88184611bdf565b905092915050565b60006020820190508181036000830152611eca8184611c3d565b905092915050565b6000602082019050611ee76000830184611c9b565b92915050565b6000602082019050611f026000830184611cb9565b92915050565b60006020820190508181036000830152611f2181611cd7565b9050919050565b60006020820190508181036000830152611f4181611cfa565b9050919050565b60006020820190508181036000830152611f6181611d1d565b9050919050565b60006040820190508181036000830152611f8181611d40565b9050611f906020830184611e64565b92915050565b60006020820190508181036000830152611faf81611d63565b9050919050565b60006040820190508181036000830152611fcf81611d86565b9050611fde6020830184611e64565b92915050565b60006020820190508181036000830152611ffd81611da9565b9050919050565b6000602082019050818103600083015261201d81611dcc565b9050919050565b6000602082019050818103600083015261203d81611def565b9050919050565b6000602082019050818103600083015261205d81611e12565b9050919050565b60006040820190506120796000830184611e35565b92915050565b60006020820190506120946000830184611e64565b92915050565b60006120a46120b5565b90506120b08282612285565b919050565b6000604051905090565b600067ffffffffffffffff8211156120da576120d96123bd565b5b602082029050602081019050919050565b6000819050602082019050919050565b6000819050602082019050919050565b600081519050919050565b600081519050919050565b6000602082019050919050565b6000602082019050919050565b600082825260208201905092915050565b600082825260208201905092915050565b600082825260208201905092915050565b60006121798261227b565b91506121848361227b565b9250827fffffffffffffffffffffffffffffffffffffffffffffffffffffffffffffffff038211156121b9576121b8612330565b5b828201905092915050565b60006121cf8261227b565b91506121da8361227b565b9250826121ea576121e961235f565b5b828204905092915050565b60006122008261227b565b915061220b8361227b565b92508282101561221e5761221d612330565b5b828203905092915050565b60006122348261225b565b9050919050565b60008115159050919050565b6000819050919050565b6000819050919050565b600073ffffffffffffffffffffffffffffffffffffffff82169050919050565b6000819050919050565b61228e82612405565b810181811067ffffffffffffffff821117156122ad576122ac6123bd565b5b80604052505050565b60006122c18261227b565b91507fffffffffffffffffffffffffffffffffffffffffffffffffffffffffffffffff8214156122f4576122f3612330565b5b600182019050919050565b600061230a8261227b565b91506123158361227b565b9250826123255761232461235f565b5b828206905092915050565b7f4e487b7100000000000000000000000000000000000000000000000000000000600052601160045260246000fd5b7f4e487b7100000000000000000000000000000000000000000000000000000000600052601260045260246000fd5b7f4e487b7100000000000000000000000000000000000000000000000000000000600052603260045260246000fd5b7f4e487b7100000000000000000000000000000000000000000000000000000000600052604160045260246000fd5b600080fd5b600080fd5b600080fd5b600080fd5b600080fd5b6000601f19601f8301169050919050565b7f47656e657369732068617320616c7265616479206265656e2073657400000000600082015250565b7f6576616c756174696f6e20636f6d706c6574656420616c72656164792e000000600082015250565b7f43616e6e6f742061646420616e2075706461746520666f72206120667574757260008201527f6520726f756e6400000000000000000000000000000000000000000000000000602082015250565b7f696e73657274656420526f756e64203a20000000000000000000000000000000600082015250565b7f5570646174652068617320616c7265616479206265656e207265776172646564600082015250565b7f637572526f756e64203a20000000000000000000000000000000000000000000600082015250565b7f43616e6e6f742061646420616e2075706461746520666f72206120706173742060008201527f726f756e64000000000000000000000000000000000000000000000000000000602082015250565b7f416c726561647920616464656420616e2075706461746520666f72207468697360008201527f20726f756e640000000000000000000000000000000000000000000000000000602082015250565b7f43616e6e6f742061646420616e2075706461746520666f72207468652067656e60008201527f6573697320726f756e6400000000000000000000000000000000000000000000602082015250565b7f4e6f74207468652072656769737465726564206576616c7561746f7200000000600082015250565b61265181612229565b811461265c57600080fd5b50565b61266881612247565b811461267357600080fd5b50565b61267f81612251565b811461268a57600080fd5b50565b6126968161227b565b81146126a157600080fd5b5056fea2646970667358221220ffc3808f1afe7937880b3608b14a0ef86715bec53348b1b9ce4ba7cd387eade564736f6c63430008060033",
  "immutableReferences": {},
  "source": "// pragma solidity >=0.4.21 <0.7.0;\npragma solidity ^0.8.6;\npragma experimental ABIEncoderV2;\n\n/// @title Records contributions made to a Crowdsourcing Federated Learning process\n/// @author Harry Cai\ncontract Crowdsource {\n    /// @notice Address of contract creator, who evaluates updates\n    address public evaluator;\n\n    /// @notice IPFS CID of genesis model\n    bytes32 public genesis;\n\n    /// @dev The timestamp when the genesis model was upload\n    uint256 internal genesisTimestamp;\n\n    /// @dev Duration of each training round in seconds\n    uint256 internal roundDuration;\n\n    /// @dev Number of updates before training round automatically ends. (If 0, always wait the full roundDuration)\n    uint256 internal maxNumUpdates;\n\n    /// @dev Total number of seconds skipped when training rounds finish early\n    uint256 internal timeSkipped;\n\n    /// @dev The IPFS CIDs of model updates in each round\n    mapping(uint256 => bytes32[]) internal updatesInRound;\n\n    /// @dev The round to which each model update belongs\n    mapping(bytes32 => uint256) internal updateRound;\n\n    /// @dev The IPFS CIDs of model updates made by each address\n    mapping(address => bytes32[]) internal updatesFromAddress;\n\n    /// @dev The Account of model updates \n    mapping( bytes32 => address) internal accountsFromUpdate;\n\n    /// @dev Whether or not each model update has been evaluated\n    mapping(bytes32 => bool) internal tokensAssigned;\n\n    /// @dev The contributivity score for each model update, if evaluated\n    mapping(bytes32 => uint256) internal tokens;\n\n    /// @dev Current Round's Trainer list\n    mapping(uint256 => address[]) internal curTrainers;\n\n    /// @dev Current Round's Evaluation complete flag\n    mapping(uint256 => bool) internal evalflag;\n\n    /// @dev Global model for each rounds\n    mapping(uint256 => bytes32) internal globalmodel;\n\n    struct ScoreandAccount {\n        address account;\n        int256 score;\n    }\n\n    /// @dev Account, Scores by cids \n    mapping(bytes32 => ScoreandAccount) internal score;\n\n    event Log(string _myString , uint256 round);\n\n    /// @notice Constructor. The address that deploys the contract is set as the evaluator.\n    constructor() public {\n        // evaluator = msg.sender;\n        evaluator = tx.origin;\n    }\n\n    modifier evaluatorOnly() {\n        // require(msg.sender == evaluator, \"Not the registered evaluator\");\n        require(tx.origin == evaluator, \"Not the registered evaluator\");\n        _;\n    }\n\n    function saveGlobalmodel(bytes32 _cid, uint256 _round) external evaluatorOnly(){\n        globalmodel[_round] = _cid;\n    }\n\n    function getGlobalmodel (uint256 _round) external view returns (bytes32){\n        return globalmodel[_round];\n    }\n\n    function saveScores(bytes32 _cid, address _address, int256 _score) external evaluatorOnly(){\n        score[_cid] = ScoreandAccount(_address,_score);\n    }\n\n    function getScores(bytes32 _cid) external view evaluatorOnly returns(ScoreandAccount memory){\n        return score[_cid];\n    }\n\n    function completeEval(uint256 _round) external evaluatorOnly() {\n        require(evalflag[_round] == false,\"evaluation completed already.\");\n        evalflag[_round] = true;\n    }\n\n    function getCurTrainers (uint256 _round) external view returns (address[] memory  trainers){\n        trainers = curTrainers[_round];\n    }\n\n    function isTrainer(address _address, uint256 _round) external view returns (bool trainCheckFlag){\n        trainCheckFlag=false;\n        \n        for(uint i = 0; i < curTrainers[_round].length ; i++){\n            if(curTrainers[_round][i] == _address){\n                trainCheckFlag= true;\n            }else{\n                continue;\n            }\n        } \n        return trainCheckFlag;\n    }\n\n    function setCurTrainer(address[] memory _address, uint256 _round) public evaluatorOnly() {\n        for (uint i = 0; i<_address.length; i++){\n             curTrainers[_round].push(_address[i]);\n        }\n    }\n\n    function changeMaxNumUpdates(uint256 _maxNum) external evaluatorOnly(){\n        maxNumUpdates = _maxNum;\n    }\n\n    /// @return round The index of the current training round.\n    function currentRound() public view returns (uint256 round) {\n        uint256 timeElapsed = timeSkipped + block.timestamp - genesisTimestamp;\n        round = 1 + (timeElapsed / roundDuration);\n    }\n\n\n    /// @return remaining The number of seconds remaining in the current training round.\n    function secondsRemaining() public view returns (uint256 remaining) {\n        uint256 timeElapsed = timeSkipped + block.timestamp - genesisTimestamp;\n        remaining = roundDuration - (timeElapsed % roundDuration);\n    }\n\n    /// @return The CID's of updates in the given training round.\n    function updates(uint256 _round) external view returns (bytes32[] memory) {\n        return updatesInRound[_round];\n    }\n\n    /// @return count Token count of the given address up to and including the given round.\n    function countTokens(address _address, uint256 _round)\n        external\n        view\n        returns (uint256 count)\n    {\n        bytes32[] memory updates = updatesFromAddress[_address];\n        for (uint256 i = 0; i < updates.length; i++) {\n            bytes32 update = updates[i];\n            if (updateRound[update] <= _round) {\n                count += tokens[updates[i]];\n            }\n        }\n    }\n\n    /// @return count Total number of tokens up to and including the given round.\n    function countTotalTokens(uint256 _round) external view returns (uint256 count) {\n        for (uint256 i = 1; i <= currentRound(); i++) {\n            bytes32[] memory updates = updatesInRound[i];\n            for (uint256 j = 0; j < updates.length; j++) {\n                bytes32 update = updates[j];\n                if (updateRound[update] <= _round){\n                    count += tokens[updates[j]];\n                }\n            }\n        }\n    }\n\n    /// @return Whether the given address made a contribution in the given round.\n    function madeContribution(address _address, uint256 _round)\n        public\n        view\n        returns (bool)\n    {\n        for (uint256 i = 0; i < updatesFromAddress[_address].length; i++) {\n            bytes32 update = updatesFromAddress[_address][i];\n            if (updateRound[update] == _round) {\n                return true;\n            }\n        }\n        return false;\n    }\n\n    /// @notice Sets a new evaluator.\n    function setEvaluator(address _newEvaluator) external evaluatorOnly() {\n        evaluator = _newEvaluator;\n    }\n\n    /// @notice Starts training by setting the genesis model. Can only be called once.\n    /// @param _cid The CID of the genesis model\n    /// @param _roundDuration Number of seconds per training round\n    /// @param _maxNumUpdates Number of updates per round before training round automatically ends. (If 0, always wait the full roundDuration)\n    /// @dev Does not reset the training process! Deploy a new contract instead.\n    function setGenesis(\n        bytes32 _cid,\n        uint256 _roundDuration,\n        uint256 _maxNumUpdates,\n        address[] calldata accounts\n    ) external evaluatorOnly() {\n        require(genesis == 0, \"Genesis has already been set\");\n        genesis = _cid;\n        genesisTimestamp = block.timestamp;\n        roundDuration = _roundDuration;\n        maxNumUpdates = _maxNumUpdates;\n        setCurTrainer(accounts, 1);\n    }\n\n    /// @notice Records a training contribution in the current round.\n    function addModelUpdate(bytes32 _cid, uint256 _round) external {\n        emit Log(\"curRound : \", currentRound());\n        emit Log(\"inserted Round : \", _round);\n        require(_round > 0, \"Cannot add an update for the genesis round\");\n        require(\n            _round >= currentRound(),\n            \"Cannot add an update for a past round\"\n        );\n        require(\n            _round <= currentRound(),\n            \"Cannot add an update for a future round\"\n        );\n        require(\n            // !madeContribution(msg.sender, _round),\n            !madeContribution(tx.origin, _round),\n            \"Already added an update for this round\"\n        );\n\n        updatesInRound[_round].push(_cid);\n        // updatesFromAddress[msg.sender].push(_cid);\n        // accountsFromUpdate[_cid] = msg.sender;\n        updatesFromAddress[tx.origin].push(_cid);\n        accountsFromUpdate[_cid] = tx.origin;\n        updateRound[_cid] = _round;\n\n        // if (\n        //     maxNumUpdates > 0 && updatesInRound[_round].length >= maxNumUpdates && _round == 1\n        // ) {\n        //     // Skip to the end of training round\n        //     timeSkipped += secondsRemaining();\n        // }\n    }\n\n     function skipRound(uint256 _round) \n        external\n    {\n        // require( maxNumUpdates > 0 && updatesInRound[_round].length >= maxNumUpdates, \"trainers did not finish their training process\");\n        // require( evalflag[_round] == true, \"evaluation is not completed\");\n        // timeSkipped += secondsRemaining();\n        if (\n            maxNumUpdates > 0 && updatesInRound[_round].length >= maxNumUpdates && (evalflag[_round] == true || _round ==1)\n        ) {\n            // Skip to the end of training round\n            timeSkipped += secondsRemaining();\n        }\n    }\n\n    function waitTrainers (uint256 _round) external view returns (bool) {\n        if(updatesInRound[_round].length >= maxNumUpdates){\n            return true;\n        }else{\n            return false;\n        }\n    }\n\n    function getmaxNum () public view returns (uint256) {\n        return maxNumUpdates;\n    }\n\n    function getAccountfromUpdate (bytes32 _cid) external view returns(address ){\n        return accountsFromUpdate[_cid];\n    }\n\n    /// @notice Assigns a token count to an update.\n    /// @param _cid The update being rewarded\n    /// @param _numTokens The number of tokens to award; should be based on marginal value contribution\n    function setTokens(bytes32 _cid, uint256 _numTokens)\n        external\n        evaluatorOnly()\n    {\n        require(!tokensAssigned[_cid], \"Update has already been rewarded\");\n        tokens[_cid] = _numTokens;\n        tokensAssigned[_cid] = true;\n    }\n}\n",
  "sourcePath": "/media/hdd1/es_workspace/BCFL_framework_es/contracts/Crowdsource.sol",
  "compiler": {
    "name": "solc",
    "version": "0.8.6+commit.11564f7e.Emscripten.clang"
  },
  "schemaVersion": "3.4.11",
  "updatedAt": "2023-02-14T00:58:48.194Z",
  "networkType": "ethereum",
  "devdoc": {
    "author": "Harry Cai",
    "kind": "dev",
    "methods": {
      "countTokens(address,uint256)": {
        "returns": {
          "count": "Token count of the given address up to and including the given round."
        }
      },
      "countTotalTokens(uint256)": {
        "returns": {
          "count": "Total number of tokens up to and including the given round."
        }
      },
      "currentRound()": {
        "returns": {
          "round": "The index of the current training round."
        }
      },
      "madeContribution(address,uint256)": {
        "returns": {
          "_0": "Whether the given address made a contribution in the given round."
        }
      },
      "secondsRemaining()": {
        "returns": {
          "remaining": "The number of seconds remaining in the current training round."
        }
      },
      "setGenesis(bytes32,uint256,uint256,address[])": {
        "details": "Does not reset the training process! Deploy a new contract instead.",
        "params": {
          "_cid": "The CID of the genesis model",
          "_maxNumUpdates": "Number of updates per round before training round automatically ends. (If 0, always wait the full roundDuration)",
          "_roundDuration": "Number of seconds per training round"
        }
      },
      "setTokens(bytes32,uint256)": {
        "params": {
          "_cid": "The update being rewarded",
          "_numTokens": "The number of tokens to award; should be based on marginal value contribution"
        }
      },
      "updates(uint256)": {
        "returns": {
          "_0": "The CID's of updates in the given training round."
        }
      }
    },
    "stateVariables": {
      "accountsFromUpdate": {
        "details": "The Account of model updates "
      },
      "curTrainers": {
        "details": "Current Round's Trainer list"
      },
      "evalflag": {
        "details": "Current Round's Evaluation complete flag"
      },
      "genesisTimestamp": {
        "details": "The timestamp when the genesis model was upload"
      },
      "globalmodel": {
        "details": "Global model for each rounds"
      },
      "maxNumUpdates": {
        "details": "Number of updates before training round automatically ends. (If 0, always wait the full roundDuration)"
      },
      "roundDuration": {
        "details": "Duration of each training round in seconds"
      },
      "score": {
        "details": "Account, Scores by cids "
      },
      "timeSkipped": {
        "details": "Total number of seconds skipped when training rounds finish early"
      },
      "tokens": {
        "details": "The contributivity score for each model update, if evaluated"
      },
      "tokensAssigned": {
        "details": "Whether or not each model update has been evaluated"
      },
      "updateRound": {
        "details": "The round to which each model update belongs"
      },
      "updatesFromAddress": {
        "details": "The IPFS CIDs of model updates made by each address"
      },
      "updatesInRound": {
        "details": "The IPFS CIDs of model updates in each round"
      }
    },
    "title": "Records contributions made to a Crowdsourcing Federated Learning process",
    "version": 1
  },
  "userdoc": {
    "kind": "user",
    "methods": {
      "addModelUpdate(bytes32,uint256)": {
        "notice": "Records a training contribution in the current round."
      },
      "constructor": {
        "notice": "Constructor. The address that deploys the contract is set as the evaluator."
      },
      "evaluator()": {
        "notice": "Address of contract creator, who evaluates updates"
      },
      "genesis()": {
        "notice": "IPFS CID of genesis model"
      },
      "setEvaluator(address)": {
        "notice": "Sets a new evaluator."
      },
      "setGenesis(bytes32,uint256,uint256,address[])": {
        "notice": "Starts training by setting the genesis model. Can only be called once."
      },
      "setTokens(bytes32,uint256)": {
        "notice": "Assigns a token count to an update."
      }
    },
    "version": 1
  }
}