{
  "contractName": "EthereumDIDRegistry",
  "abi": [
    {
      "anonymous": false,
      "inputs": [
        {
          "indexed": true,
          "internalType": "address",
          "name": "identity",
          "type": "address"
        },
        {
          "indexed": false,
          "internalType": "bytes32",
          "name": "name",
          "type": "bytes32"
        },
        {
          "indexed": false,
          "internalType": "bytes",
          "name": "value",
          "type": "bytes"
        },
        {
          "indexed": false,
          "internalType": "uint256",
          "name": "validTo",
          "type": "uint256"
        },
        {
          "indexed": false,
          "internalType": "uint256",
          "name": "previousChange",
          "type": "uint256"
        }
      ],
      "name": "DIDAttributeChanged",
      "type": "event"
    },
    {
      "anonymous": false,
      "inputs": [
        {
          "indexed": true,
          "internalType": "address",
          "name": "identity",
          "type": "address"
        },
        {
          "indexed": false,
          "internalType": "bytes32",
          "name": "delegateType",
          "type": "bytes32"
        },
        {
          "indexed": false,
          "internalType": "address",
          "name": "delegate",
          "type": "address"
        },
        {
          "indexed": false,
          "internalType": "uint256",
          "name": "validTo",
          "type": "uint256"
        },
        {
          "indexed": false,
          "internalType": "uint256",
          "name": "previousChange",
          "type": "uint256"
        }
      ],
      "name": "DIDDelegateChanged",
      "type": "event"
    },
    {
      "anonymous": false,
      "inputs": [
        {
          "indexed": true,
          "internalType": "address",
          "name": "identity",
          "type": "address"
        },
        {
          "indexed": false,
          "internalType": "address",
          "name": "owner",
          "type": "address"
        },
        {
          "indexed": false,
          "internalType": "uint256",
          "name": "previousChange",
          "type": "uint256"
        }
      ],
      "name": "DIDOwnerChanged",
      "type": "event"
    },
    {
      "inputs": [
        {
          "internalType": "address",
          "name": "",
          "type": "address"
        }
      ],
      "name": "changed",
      "outputs": [
        {
          "internalType": "uint256",
          "name": "",
          "type": "uint256"
        }
      ],
      "stateMutability": "view",
      "type": "function",
      "constant": true
    },
    {
      "inputs": [
        {
          "internalType": "address",
          "name": "",
          "type": "address"
        },
        {
          "internalType": "bytes32",
          "name": "",
          "type": "bytes32"
        },
        {
          "internalType": "address",
          "name": "",
          "type": "address"
        }
      ],
      "name": "delegates",
      "outputs": [
        {
          "internalType": "uint256",
          "name": "",
          "type": "uint256"
        }
      ],
      "stateMutability": "view",
      "type": "function",
      "constant": true
    },
    {
      "inputs": [
        {
          "internalType": "address",
          "name": "",
          "type": "address"
        }
      ],
      "name": "nonce",
      "outputs": [
        {
          "internalType": "uint256",
          "name": "",
          "type": "uint256"
        }
      ],
      "stateMutability": "view",
      "type": "function",
      "constant": true
    },
    {
      "inputs": [
        {
          "internalType": "address",
          "name": "",
          "type": "address"
        }
      ],
      "name": "owners",
      "outputs": [
        {
          "internalType": "address",
          "name": "",
          "type": "address"
        }
      ],
      "stateMutability": "view",
      "type": "function",
      "constant": true
    },
    {
      "inputs": [
        {
          "internalType": "address",
          "name": "identity",
          "type": "address"
        }
      ],
      "name": "identityOwner",
      "outputs": [
        {
          "internalType": "address",
          "name": "",
          "type": "address"
        }
      ],
      "stateMutability": "view",
      "type": "function",
      "constant": true
    },
    {
      "inputs": [
        {
          "internalType": "address",
          "name": "identity",
          "type": "address"
        },
        {
          "internalType": "bytes32",
          "name": "delegateType",
          "type": "bytes32"
        },
        {
          "internalType": "address",
          "name": "delegate",
          "type": "address"
        }
      ],
      "name": "validDelegate",
      "outputs": [
        {
          "internalType": "bool",
          "name": "",
          "type": "bool"
        }
      ],
      "stateMutability": "view",
      "type": "function",
      "constant": true
    },
    {
      "inputs": [
        {
          "internalType": "address",
          "name": "identity",
          "type": "address"
        },
        {
          "internalType": "address",
          "name": "newOwner",
          "type": "address"
        }
      ],
      "name": "changeOwner",
      "outputs": [],
      "stateMutability": "nonpayable",
      "type": "function"
    },
    {
      "inputs": [
        {
          "internalType": "address",
          "name": "identity",
          "type": "address"
        },
        {
          "internalType": "uint8",
          "name": "sigV",
          "type": "uint8"
        },
        {
          "internalType": "bytes32",
          "name": "sigR",
          "type": "bytes32"
        },
        {
          "internalType": "bytes32",
          "name": "sigS",
          "type": "bytes32"
        },
        {
          "internalType": "address",
          "name": "newOwner",
          "type": "address"
        }
      ],
      "name": "changeOwnerSigned",
      "outputs": [],
      "stateMutability": "nonpayable",
      "type": "function"
    },
    {
      "inputs": [
        {
          "internalType": "address",
          "name": "identity",
          "type": "address"
        },
        {
          "internalType": "bytes32",
          "name": "delegateType",
          "type": "bytes32"
        },
        {
          "internalType": "address",
          "name": "delegate",
          "type": "address"
        },
        {
          "internalType": "uint256",
          "name": "validity",
          "type": "uint256"
        }
      ],
      "name": "addDelegate",
      "outputs": [],
      "stateMutability": "nonpayable",
      "type": "function"
    },
    {
      "inputs": [
        {
          "internalType": "address",
          "name": "identity",
          "type": "address"
        },
        {
          "internalType": "uint8",
          "name": "sigV",
          "type": "uint8"
        },
        {
          "internalType": "bytes32",
          "name": "sigR",
          "type": "bytes32"
        },
        {
          "internalType": "bytes32",
          "name": "sigS",
          "type": "bytes32"
        },
        {
          "internalType": "bytes32",
          "name": "delegateType",
          "type": "bytes32"
        },
        {
          "internalType": "address",
          "name": "delegate",
          "type": "address"
        },
        {
          "internalType": "uint256",
          "name": "validity",
          "type": "uint256"
        }
      ],
      "name": "addDelegateSigned",
      "outputs": [],
      "stateMutability": "nonpayable",
      "type": "function"
    },
    {
      "inputs": [
        {
          "internalType": "address",
          "name": "identity",
          "type": "address"
        },
        {
          "internalType": "bytes32",
          "name": "delegateType",
          "type": "bytes32"
        },
        {
          "internalType": "address",
          "name": "delegate",
          "type": "address"
        }
      ],
      "name": "revokeDelegate",
      "outputs": [],
      "stateMutability": "nonpayable",
      "type": "function"
    },
    {
      "inputs": [
        {
          "internalType": "address",
          "name": "identity",
          "type": "address"
        },
        {
          "internalType": "uint8",
          "name": "sigV",
          "type": "uint8"
        },
        {
          "internalType": "bytes32",
          "name": "sigR",
          "type": "bytes32"
        },
        {
          "internalType": "bytes32",
          "name": "sigS",
          "type": "bytes32"
        },
        {
          "internalType": "bytes32",
          "name": "delegateType",
          "type": "bytes32"
        },
        {
          "internalType": "address",
          "name": "delegate",
          "type": "address"
        }
      ],
      "name": "revokeDelegateSigned",
      "outputs": [],
      "stateMutability": "nonpayable",
      "type": "function"
    },
    {
      "inputs": [
        {
          "internalType": "address",
          "name": "identity",
          "type": "address"
        },
        {
          "internalType": "bytes32",
          "name": "name",
          "type": "bytes32"
        },
        {
          "internalType": "bytes",
          "name": "value",
          "type": "bytes"
        },
        {
          "internalType": "uint256",
          "name": "validity",
          "type": "uint256"
        }
      ],
      "name": "setAttribute",
      "outputs": [],
      "stateMutability": "nonpayable",
      "type": "function"
    },
    {
      "inputs": [
        {
          "internalType": "address",
          "name": "identity",
          "type": "address"
        },
        {
          "internalType": "uint8",
          "name": "sigV",
          "type": "uint8"
        },
        {
          "internalType": "bytes32",
          "name": "sigR",
          "type": "bytes32"
        },
        {
          "internalType": "bytes32",
          "name": "sigS",
          "type": "bytes32"
        },
        {
          "internalType": "bytes32",
          "name": "name",
          "type": "bytes32"
        },
        {
          "internalType": "bytes",
          "name": "value",
          "type": "bytes"
        },
        {
          "internalType": "uint256",
          "name": "validity",
          "type": "uint256"
        }
      ],
      "name": "setAttributeSigned",
      "outputs": [],
      "stateMutability": "nonpayable",
      "type": "function"
    },
    {
      "inputs": [
        {
          "internalType": "address",
          "name": "identity",
          "type": "address"
        },
        {
          "internalType": "bytes32",
          "name": "name",
          "type": "bytes32"
        },
        {
          "internalType": "bytes",
          "name": "value",
          "type": "bytes"
        }
      ],
      "name": "revokeAttribute",
      "outputs": [],
      "stateMutability": "nonpayable",
      "type": "function"
    },
    {
      "inputs": [
        {
          "internalType": "address",
          "name": "identity",
          "type": "address"
        },
        {
          "internalType": "uint8",
          "name": "sigV",
          "type": "uint8"
        },
        {
          "internalType": "bytes32",
          "name": "sigR",
          "type": "bytes32"
        },
        {
          "internalType": "bytes32",
          "name": "sigS",
          "type": "bytes32"
        },
        {
          "internalType": "bytes32",
          "name": "name",
          "type": "bytes32"
        },
        {
          "internalType": "bytes",
          "name": "value",
          "type": "bytes"
        }
      ],
      "name": "revokeAttributeSigned",
      "outputs": [],
      "stateMutability": "nonpayable",
      "type": "function"
    }
  ],
  "bytecode": "0x608060405234801561001057600080fd5b50612490806100206000396000f3fe608060405234801561001057600080fd5b50600436106100ff5760003560e01c806380b29f7c11610097578063a7068d6611610066578063a7068d66146102b8578063e476af5c146102d4578063f00d4b5d146102f0578063f96d0f9f1461030c576100ff565b806380b29f7c146102345780638733d4e81461025057806393072684146102805780639c2c1b2b1461029c576100ff565b8063240cf1fa116100d3578063240cf1fa1461019c578063622b2a3c146101b857806370ae92d2146101e85780637ad4b0a414610218576100ff565b8062c023da14610104578063022914a7146101205780630d44625b14610150578063123b5e9814610180575b600080fd5b61011e600480360381019061011991906114b6565b61033c565b005b61013a6004803603810190610135919061138f565b61034d565b6040516101479190611daa565b60405180910390f35b61016a600480360381019061016591906113fc565b610380565b6040516101779190611f86565b60405180910390f35b61019a600480360381019061019591906117fb565b6103b2565b005b6101b660048036038101906101b191906115a8565b61045d565b005b6101d260048036038101906101cd91906113fc565b610500565b6040516101df9190611dee565b60405180910390f35b61020260048036038101906101fd919061138f565b6105c6565b60405161020f9190611f86565b60405180910390f35b610232600480360381019061022d9190611525565b6105de565b005b61024e600480360381019061024991906113fc565b6105f1565b005b61026a6004803603810190610265919061138f565b610602565b6040516102779190611daa565b60405180910390f35b61029a60048036038101906102959190611623565b6106ad565b005b6102b660048036038101906102b191906116b0565b610754565b005b6102d260048036038101906102cd919061144f565b6107ff565b005b6102ee60048036038101906102e99190611752565b610812565b005b61030a600480360381019061030591906113bc565b6108b9565b005b6103266004803603810190610321919061138f565b6108c8565b6040516103339190611f86565b60405180910390f35b610348833384846108e0565b505050565b60006020528060005260406000206000915054906101000a900473ffffffffffffffffffffffffffffffffffffffff1681565b600160205282600052604060002060205281600052604060002060205280600052604060002060009250925050505481565b6000601960f81b600060f81b30600360006103cc8d610602565b73ffffffffffffffffffffffffffffffffffffffff1673ffffffffffffffffffffffffffffffffffffffff168152602001908152602001600020548b888888604051602001610422989796959493929190611c85565b6040516020818303038152906040528051906020012090506104538861044b8a8a8a8a87610a38565b868686610b64565b5050505050505050565b6000601960f81b600060f81b30600360006104778b610602565b73ffffffffffffffffffffffffffffffffffffffff1673ffffffffffffffffffffffffffffffffffffffff1681526020019081526020016000205489866040516020016104c996959493929190611b6d565b6040516020818303038152906040528051906020012090506104f8866104f28888888887610a38565b84610cc7565b505050505050565b600080600160008673ffffffffffffffffffffffffffffffffffffffff1673ffffffffffffffffffffffffffffffffffffffff1681526020019081526020016000206000856040516020016105559190611e09565b60405160208183030381529060405280519060200120815260200190815260200160002060008473ffffffffffffffffffffffffffffffffffffffff1673ffffffffffffffffffffffffffffffffffffffff1681526020019081526020016000205490504281119150509392505050565b60036020528060005260406000206000915090505481565b6105eb8433858585610b64565b50505050565b6105fd83338484610e96565b505050565b6000806000808473ffffffffffffffffffffffffffffffffffffffff1673ffffffffffffffffffffffffffffffffffffffff16815260200190815260200160002060009054906101000a900473ffffffffffffffffffffffffffffffffffffffff169050600073ffffffffffffffffffffffffffffffffffffffff168173ffffffffffffffffffffffffffffffffffffffff16146106a357809150506106a8565b829150505b919050565b6000601960f81b600060f81b30600360006106c78c610602565b73ffffffffffffffffffffffffffffffffffffffff1673ffffffffffffffffffffffffffffffffffffffff168152602001908152602001600020548a878760405160200161071b9796959493929190611d1e565b60405160208183030381529060405280519060200120905061074b876107448989898987610a38565b8585610e96565b50505050505050565b6000601960f81b600060f81b306003600061076e8d610602565b73ffffffffffffffffffffffffffffffffffffffff1673ffffffffffffffffffffffffffffffffffffffff168152602001908152602001600020548b8888886040516020016107c4989796959493929190611be8565b6040516020818303038152906040528051906020012090506107f5886107ed8a8a8a8a87610a38565b8686866110a5565b5050505050505050565b61080c84338585856110a5565b50505050565b6000601960f81b600060f81b306003600061082c8c610602565b73ffffffffffffffffffffffffffffffffffffffff1673ffffffffffffffffffffffffffffffffffffffff168152602001908152602001600020548a87876040516020016108809796959493929190611ae5565b6040516020818303038152906040528051906020012090506108b0876108a98989898987610a38565b85856108e0565b50505050505050565b6108c4823383610cc7565b5050565b60026020528060005260406000206000915090505481565b83836108eb82610602565b73ffffffffffffffffffffffffffffffffffffffff168173ffffffffffffffffffffffffffffffffffffffff1614610958576040517f08c379a000000000000000000000000000000000000000000000000000000000815260040161094f90611f66565b60405180910390fd5b8573ffffffffffffffffffffffffffffffffffffffff167f18ab6b2ae3d64306c00ce663125f2bd680e441a098de1635bd7ad8b0d44965e485856000600260008c73ffffffffffffffffffffffffffffffffffffffff1673ffffffffffffffffffffffffffffffffffffffff168152602001908152602001600020546040516109e49493929190611e69565b60405180910390a243600260008873ffffffffffffffffffffffffffffffffffffffff1673ffffffffffffffffffffffffffffffffffffffff16815260200190815260200160002081905550505050505050565b60008060018387878760405160008152602001604052604051610a5e9493929190611f01565b6020604051602081039080840390855afa158015610a80573d6000803e3d6000fd5b505050602060405103519050610a9587610602565b73ffffffffffffffffffffffffffffffffffffffff168173ffffffffffffffffffffffffffffffffffffffff1614610b02576040517f08c379a0000000000000000000000000000000000000000000000000000000008152600401610af990611f46565b60405180910390fd5b600360008273ffffffffffffffffffffffffffffffffffffffff1673ffffffffffffffffffffffffffffffffffffffff1681526020019081526020016000206000815480929190610b52906121c4565b91905055508091505095945050505050565b8484610b6f82610602565b73ffffffffffffffffffffffffffffffffffffffff168173ffffffffffffffffffffffffffffffffffffffff1614610bdc576040517f08c379a0000000000000000000000000000000000000000000000000000000008152600401610bd390611f66565b60405180910390fd5b8673ffffffffffffffffffffffffffffffffffffffff167f18ab6b2ae3d64306c00ce663125f2bd680e441a098de1635bd7ad8b0d44965e486868642610c22919061203a565b600260008d73ffffffffffffffffffffffffffffffffffffffff1673ffffffffffffffffffffffffffffffffffffffff16815260200190815260200160002054604051610c729493929190611eb5565b60405180910390a243600260008973ffffffffffffffffffffffffffffffffffffffff1673ffffffffffffffffffffffffffffffffffffffff1681526020019081526020016000208190555050505050505050565b8282610cd282610602565b73ffffffffffffffffffffffffffffffffffffffff168173ffffffffffffffffffffffffffffffffffffffff1614610d3f576040517f08c379a0000000000000000000000000000000000000000000000000000000008152600401610d3690611f66565b60405180910390fd5b826000808773ffffffffffffffffffffffffffffffffffffffff1673ffffffffffffffffffffffffffffffffffffffff16815260200190815260200160002060006101000a81548173ffffffffffffffffffffffffffffffffffffffff021916908373ffffffffffffffffffffffffffffffffffffffff1602179055508473ffffffffffffffffffffffffffffffffffffffff167f38a5a6e68f30ed1ab45860a4afb34bcb2fc00f22ca462d249b8a8d40cda6f7a384600260008973ffffffffffffffffffffffffffffffffffffffff1673ffffffffffffffffffffffffffffffffffffffff16815260200190815260200160002054604051610e43929190611dc5565b60405180910390a243600260008773ffffffffffffffffffffffffffffffffffffffff1673ffffffffffffffffffffffffffffffffffffffff168152602001908152602001600020819055505050505050565b8383610ea182610602565b73ffffffffffffffffffffffffffffffffffffffff168173ffffffffffffffffffffffffffffffffffffffff1614610f0e576040517f08c379a0000000000000000000000000000000000000000000000000000000008152600401610f0590611f66565b60405180910390fd5b42600160008873ffffffffffffffffffffffffffffffffffffffff1673ffffffffffffffffffffffffffffffffffffffff168152602001908152602001600020600086604051602001610f619190611e09565b60405160208183030381529060405280519060200120815260200190815260200160002060008573ffffffffffffffffffffffffffffffffffffffff1673ffffffffffffffffffffffffffffffffffffffff168152602001908152602001600020819055508573ffffffffffffffffffffffffffffffffffffffff167f5a5084339536bcab65f20799fcc58724588145ca054bd2be626174b27ba156f7858542600260008c73ffffffffffffffffffffffffffffffffffffffff1673ffffffffffffffffffffffffffffffffffffffff168152602001908152602001600020546040516110519493929190611e24565b60405180910390a243600260008873ffffffffffffffffffffffffffffffffffffffff1673ffffffffffffffffffffffffffffffffffffffff16815260200190815260200160002081905550505050505050565b84846110b082610602565b73ffffffffffffffffffffffffffffffffffffffff168173ffffffffffffffffffffffffffffffffffffffff161461111d576040517f08c379a000000000000000000000000000000000000000000000000000000000815260040161111490611f66565b60405180910390fd5b8242611129919061203a565b600160008973ffffffffffffffffffffffffffffffffffffffff1673ffffffffffffffffffffffffffffffffffffffff16815260200190815260200160002060008760405160200161117b9190611e09565b60405160208183030381529060405280519060200120815260200190815260200160002060008673ffffffffffffffffffffffffffffffffffffffff1673ffffffffffffffffffffffffffffffffffffffff168152602001908152602001600020819055508673ffffffffffffffffffffffffffffffffffffffff167f5a5084339536bcab65f20799fcc58724588145ca054bd2be626174b27ba156f786868642611226919061203a565b600260008d73ffffffffffffffffffffffffffffffffffffffff1673ffffffffffffffffffffffffffffffffffffffff168152602001908152602001600020546040516112769493929190611e24565b60405180910390a243600260008973ffffffffffffffffffffffffffffffffffffffff1673ffffffffffffffffffffffffffffffffffffffff1681526020019081526020016000208190555050505050505050565b60006112de6112d984611fc6565b611fa1565b9050828152602081018484840111156112fa576112f96122b2565b5b611305848285612151565b509392505050565b60008135905061131c816123fe565b92915050565b60008135905061133181612415565b92915050565b600082601f83011261134c5761134b6122ad565b5b813561135c8482602086016112cb565b91505092915050565b6000813590506113748161242c565b92915050565b60008135905061138981612443565b92915050565b6000602082840312156113a5576113a46122bc565b5b60006113b38482850161130d565b91505092915050565b600080604083850312156113d3576113d26122bc565b5b60006113e18582860161130d565b92505060206113f28582860161130d565b9150509250929050565b600080600060608486031215611415576114146122bc565b5b60006114238682870161130d565b935050602061143486828701611322565b92505060406114458682870161130d565b9150509250925092565b60008060008060808587031215611469576114686122bc565b5b60006114778782880161130d565b945050602061148887828801611322565b93505060406114998782880161130d565b92505060606114aa87828801611365565b91505092959194509250565b6000806000606084860312156114cf576114ce6122bc565b5b60006114dd8682870161130d565b93505060206114ee86828701611322565b925050604084013567ffffffffffffffff81111561150f5761150e6122b7565b5b61151b86828701611337565b9150509250925092565b6000806000806080858703121561153f5761153e6122bc565b5b600061154d8782880161130d565b945050602061155e87828801611322565b935050604085013567ffffffffffffffff81111561157f5761157e6122b7565b5b61158b87828801611337565b925050606061159c87828801611365565b91505092959194509250565b600080600080600060a086880312156115c4576115c36122bc565b5b60006115d28882890161130d565b95505060206115e38882890161137a565b94505060406115f488828901611322565b935050606061160588828901611322565b92505060806116168882890161130d565b9150509295509295909350565b60008060008060008060c087890312156116405761163f6122bc565b5b600061164e89828a0161130d565b965050602061165f89828a0161137a565b955050604061167089828a01611322565b945050606061168189828a01611322565b935050608061169289828a01611322565b92505060a06116a389828a0161130d565b9150509295509295509295565b600080600080600080600060e0888a0312156116cf576116ce6122bc565b5b60006116dd8a828b0161130d565b97505060206116ee8a828b0161137a565b96505060406116ff8a828b01611322565b95505060606117108a828b01611322565b94505060806117218a828b01611322565b93505060a06117328a828b0161130d565b92505060c06117438a828b01611365565b91505092959891949750929550565b60008060008060008060c0878903121561176f5761176e6122bc565b5b600061177d89828a0161130d565b965050602061178e89828a0161137a565b955050604061179f89828a01611322565b94505060606117b089828a01611322565b93505060806117c189828a01611322565b92505060a087013567ffffffffffffffff8111156117e2576117e16122b7565b5b6117ee89828a01611337565b9150509295509295509295565b600080600080600080600060e0888a03121561181a576118196122bc565b5b60006118288a828b0161130d565b97505060206118398a828b0161137a565b965050604061184a8a828b01611322565b955050606061185b8a828b01611322565b945050608061186c8a828b01611322565b93505060a088013567ffffffffffffffff81111561188d5761188c6122b7565b5b6118998a828b01611337565b92505060c06118aa8a828b01611365565b91505092959891949750929550565b6118c281612090565b82525050565b6118d96118d482612090565b61220d565b82525050565b6118e8816120a2565b82525050565b6118ff6118fa826120ae565b61221f565b82525050565b61190e816120da565b82525050565b611925611920826120da565b612229565b82525050565b600061193682611ff7565b6119408185612002565b9350611950818560208601612160565b611959816122c1565b840191505092915050565b600061196f82611ff7565b6119798185612013565b9350611989818560208601612160565b80840191505092915050565b6119a66119a18261211b565b61220d565b82525050565b6119b58161213f565b82525050565b60006119c8600f8361202f565b91506119d3826122df565b600f82019050919050565b60006119eb600b8361202f565b91506119f682612308565b600b82019050919050565b6000611a0e600d8361201e565b9150611a1982612331565b602082019050919050565b6000611a3160098361201e565b9150611a3c8261235a565b602082019050919050565b6000611a54600b8361202f565b9150611a5f82612383565b600b82019050919050565b6000611a77600c8361202f565b9150611a82826123ac565b600c82019050919050565b6000611a9a600e8361202f565b9150611aa5826123d5565b600e82019050919050565b611ab981612104565b82525050565b611ad0611acb82612104565b612245565b82525050565b611adf8161210e565b82525050565b6000611af1828a6118ee565b600182019150611b0182896118ee565b600182019150611b118288611995565b601482019150611b218287611abf565b602082019150611b3182866118c8565b601482019150611b40826119bb565b9150611b4c8285611914565b602082019150611b5c8284611964565b915081905098975050505050505050565b6000611b7982896118ee565b600182019150611b8982886118ee565b600182019150611b998287611995565b601482019150611ba98286611abf565b602082019150611bb982856118c8565b601482019150611bc8826119de565b9150611bd482846118c8565b601482019150819050979650505050505050565b6000611bf4828b6118ee565b600182019150611c04828a6118ee565b600182019150611c148289611995565b601482019150611c248288611abf565b602082019150611c3482876118c8565b601482019150611c4382611a47565b9150611c4f8286611914565b602082019150611c5f82856118c8565b601482019150611c6f8284611abf565b6020820191508190509998505050505050505050565b6000611c91828b6118ee565b600182019150611ca1828a6118ee565b600182019150611cb18289611995565b601482019150611cc18288611abf565b602082019150611cd182876118c8565b601482019150611ce082611a6a565b9150611cec8286611914565b602082019150611cfc8285611964565b9150611d088284611abf565b6020820191508190509998505050505050505050565b6000611d2a828a6118ee565b600182019150611d3a82896118ee565b600182019150611d4a8288611995565b601482019150611d5a8287611abf565b602082019150611d6a82866118c8565b601482019150611d7982611a8d565b9150611d858285611914565b602082019150611d9582846118c8565b60148201915081905098975050505050505050565b6000602082019050611dbf60008301846118b9565b92915050565b6000604082019050611dda60008301856118b9565b611de76020830184611ab0565b9392505050565b6000602082019050611e0360008301846118df565b92915050565b6000602082019050611e1e6000830184611905565b92915050565b6000608082019050611e396000830187611905565b611e4660208301866118b9565b611e536040830185611ab0565b611e606060830184611ab0565b95945050505050565b6000608082019050611e7e6000830187611905565b8181036020830152611e90818661192b565b9050611e9f60408301856119ac565b611eac6060830184611ab0565b95945050505050565b6000608082019050611eca6000830187611905565b8181036020830152611edc818661192b565b9050611eeb6040830185611ab0565b611ef86060830184611ab0565b95945050505050565b6000608082019050611f166000830187611905565b611f236020830186611ad6565b611f306040830185611905565b611f3d6060830184611905565b95945050505050565b60006020820190508181036000830152611f5f81611a01565b9050919050565b60006020820190508181036000830152611f7f81611a24565b9050919050565b6000602082019050611f9b6000830184611ab0565b92915050565b6000611fab611fbc565b9050611fb78282612193565b919050565b6000604051905090565b600067ffffffffffffffff821115611fe157611fe061227e565b5b611fea826122c1565b9050602081019050919050565b600081519050919050565b600082825260208201905092915050565b600081905092915050565b600082825260208201905092915050565b600081905092915050565b600061204582612104565b915061205083612104565b9250827fffffffffffffffffffffffffffffffffffffffffffffffffffffffffffffffff038211156120855761208461224f565b5b828201905092915050565b600061209b826120e4565b9050919050565b60008115159050919050565b60007fff0000000000000000000000000000000000000000000000000000000000000082169050919050565b6000819050919050565b600073ffffffffffffffffffffffffffffffffffffffff82169050919050565b6000819050919050565b600060ff82169050919050565b60006121268261212d565b9050919050565b6000612138826120e4565b9050919050565b600061214a82612104565b9050919050565b82818337600083830152505050565b60005b8381101561217e578082015181840152602081019050612163565b8381111561218d576000848401525b50505050565b61219c826122c1565b810181811067ffffffffffffffff821117156121bb576121ba61227e565b5b80604052505050565b60006121cf82612104565b91507fffffffffffffffffffffffffffffffffffffffffffffffffffffffffffffffff8214156122025761220161224f565b5b600182019050919050565b600061221882612233565b9050919050565b6000819050919050565b6000819050919050565b600061223e826122d2565b9050919050565b6000819050919050565b7f4e487b7100000000000000000000000000000000000000000000000000000000600052601160045260246000fd5b7f4e487b7100000000000000000000000000000000000000000000000000000000600052604160045260246000fd5b600080fd5b600080fd5b600080fd5b600080fd5b6000601f19601f8301169050919050565b60008160601b9050919050565b7f7265766f6b654174747269627574650000000000000000000000000000000000600082015250565b7f6368616e67654f776e6572000000000000000000000000000000000000000000600082015250565b7f6261645f7369676e617475726500000000000000000000000000000000000000600082015250565b7f6261645f6163746f720000000000000000000000000000000000000000000000600082015250565b7f61646444656c6567617465000000000000000000000000000000000000000000600082015250565b7f7365744174747269627574650000000000000000000000000000000000000000600082015250565b7f7265766f6b6544656c6567617465000000000000000000000000000000000000600082015250565b61240781612090565b811461241257600080fd5b50565b61241e816120da565b811461242957600080fd5b50565b61243581612104565b811461244057600080fd5b50565b61244c8161210e565b811461245757600080fd5b5056fea264697066735822122076e8f23ce23e8f3081e9e3dfd180509fee8b540823733fedeb91d1f7b764dfd264736f6c63430008060033",
  "immutableReferences": {},
  "source": "/* SPDX-License-Identifier: MIT */\n\npragma solidity ^0.8.6;\n\ncontract EthereumDIDRegistry {\n\n  mapping(address => address) public owners;\n  mapping(address => mapping(bytes32 => mapping(address => uint))) public delegates;\n  mapping(address => uint) public changed;\n  mapping(address => uint) public nonce;\n\n  modifier onlyOwner(address identity, address actor) {\n    require (actor == identityOwner(identity), \"bad_actor\");\n    _;\n  }\n\n  event DIDOwnerChanged(\n    address indexed identity,\n    address owner,\n    uint previousChange\n  );\n\n  event DIDDelegateChanged(\n    address indexed identity,\n    bytes32 delegateType,\n    address delegate,\n    uint validTo,\n    uint previousChange\n  );\n\n  event DIDAttributeChanged(\n    address indexed identity,\n    bytes32 name,\n    bytes value,\n    uint validTo,\n    uint previousChange\n  );\n\n  function identityOwner(address identity) public view returns(address) {\n     address owner = owners[identity];\n     if (owner != address(0x00)) {\n       return owner;\n     }\n     return identity;\n  }\n\n  function checkSignature(address identity, uint8 sigV, bytes32 sigR, bytes32 sigS, bytes32 hash) internal returns(address) {\n    address signer = ecrecover(hash, sigV, sigR, sigS);\n    require(signer == identityOwner(identity), \"bad_signature\");\n    nonce[signer]++;\n    return signer;\n  }\n\n  function validDelegate(address identity, bytes32 delegateType, address delegate) public view returns(bool) {\n    uint validity = delegates[identity][keccak256(abi.encode(delegateType))][delegate];\n    return (validity > block.timestamp);\n  }\n\n  function changeOwner(address identity, address actor, address newOwner) internal onlyOwner(identity, actor) {\n    owners[identity] = newOwner;\n    emit DIDOwnerChanged(identity, newOwner, changed[identity]);\n    changed[identity] = block.number;\n  }\n\n  function changeOwner(address identity, address newOwner) public {\n    changeOwner(identity, msg.sender, newOwner);\n  }\n\n  function changeOwnerSigned(address identity, uint8 sigV, bytes32 sigR, bytes32 sigS, address newOwner) public {\n    bytes32 hash = keccak256(abi.encodePacked(bytes1(0x19), bytes1(0), this, nonce[identityOwner(identity)], identity, \"changeOwner\", newOwner));\n    changeOwner(identity, checkSignature(identity, sigV, sigR, sigS, hash), newOwner);\n  }\n\n  function addDelegate(address identity, address actor, bytes32 delegateType, address delegate, uint validity) internal onlyOwner(identity, actor) {\n    delegates[identity][keccak256(abi.encode(delegateType))][delegate] = block.timestamp + validity;\n    emit DIDDelegateChanged(identity, delegateType, delegate, block.timestamp + validity, changed[identity]);\n    changed[identity] = block.number;\n  }\n\n  function addDelegate(address identity, bytes32 delegateType, address delegate, uint validity) public {\n    addDelegate(identity, msg.sender, delegateType, delegate, validity);\n  }\n\n  function addDelegateSigned(address identity, uint8 sigV, bytes32 sigR, bytes32 sigS, bytes32 delegateType, address delegate, uint validity) public {\n    bytes32 hash = keccak256(abi.encodePacked(bytes1(0x19), bytes1(0), this, nonce[identityOwner(identity)], identity, \"addDelegate\", delegateType, delegate, validity));\n    addDelegate(identity, checkSignature(identity, sigV, sigR, sigS, hash), delegateType, delegate, validity);\n  }\n\n  function revokeDelegate(address identity, address actor, bytes32 delegateType, address delegate) internal onlyOwner(identity, actor) {\n    delegates[identity][keccak256(abi.encode(delegateType))][delegate] = block.timestamp;\n    emit DIDDelegateChanged(identity, delegateType, delegate, block.timestamp, changed[identity]);\n    changed[identity] = block.number;\n  }\n\n  function revokeDelegate(address identity, bytes32 delegateType, address delegate) public {\n    revokeDelegate(identity, msg.sender, delegateType, delegate);\n  }\n\n  function revokeDelegateSigned(address identity, uint8 sigV, bytes32 sigR, bytes32 sigS, bytes32 delegateType, address delegate) public {\n    bytes32 hash = keccak256(abi.encodePacked(bytes1(0x19), bytes1(0), this, nonce[identityOwner(identity)], identity, \"revokeDelegate\", delegateType, delegate));\n    revokeDelegate(identity, checkSignature(identity, sigV, sigR, sigS, hash), delegateType, delegate);\n  }\n\n  function setAttribute(address identity, address actor, bytes32 name, bytes memory value, uint validity ) internal onlyOwner(identity, actor) {\n    emit DIDAttributeChanged(identity, name, value, block.timestamp + validity, changed[identity]);\n    changed[identity] = block.number;\n  }\n\n  function setAttribute(address identity, bytes32 name, bytes memory value, uint validity) public {\n    setAttribute(identity, msg.sender, name, value, validity);\n  }\n\n  function setAttributeSigned(address identity, uint8 sigV, bytes32 sigR, bytes32 sigS, bytes32 name, bytes memory value, uint validity) public {\n    bytes32 hash = keccak256(abi.encodePacked(bytes1(0x19), bytes1(0), this, nonce[identityOwner(identity)], identity, \"setAttribute\", name, value, validity));\n    setAttribute(identity, checkSignature(identity, sigV, sigR, sigS, hash), name, value, validity);\n  }\n\n  function revokeAttribute(address identity, address actor, bytes32 name, bytes memory value ) internal onlyOwner(identity, actor) {\n    emit DIDAttributeChanged(identity, name, value, 0, changed[identity]);\n    changed[identity] = block.number;\n  }\n\n  function revokeAttribute(address identity, bytes32 name, bytes memory value) public {\n    revokeAttribute(identity, msg.sender, name, value);\n  }\n\n  function revokeAttributeSigned(address identity, uint8 sigV, bytes32 sigR, bytes32 sigS, bytes32 name, bytes memory value) public {\n    bytes32 hash = keccak256(abi.encodePacked(bytes1(0x19), bytes1(0), this, nonce[identityOwner(identity)], identity, \"revokeAttribute\", name, value));\n    revokeAttribute(identity, checkSignature(identity, sigV, sigR, sigS, hash), name, value);\n  }\n\n}",
  "sourcePath": "/media/hdd1/es_workspace/BCFL_framework_es/contracts/EthereumDIDRegistry.sol",
  "compiler": {
    "name": "solc",
    "version": "0.8.6+commit.11564f7e.Emscripten.clang"
  },
  "schemaVersion": "3.4.11",
  "updatedAt": "2023-03-20T04:21:50.630Z",
  "networkType": "ethereum",
  "devdoc": {
    "kind": "dev",
    "methods": {},
    "version": 1
  },
  "userdoc": {
    "kind": "user",
    "methods": {},
    "version": 1
  }
}